{
  "_format": "hh-sol-artifact-1",
  "contractName": "LHHS",
  "sourceName": "contracts/LHHS.sol",
  "abi": [
    {
      "inputs": [
        {
          "internalType": "string",
          "name": "initBaseURI",
          "type": "string"
        }
      ],
      "stateMutability": "nonpayable",
      "type": "constructor"
    },
    {
      "inputs": [],
      "name": "ApprovalCallerNotOwnerNorApproved",
      "type": "error"
    },
    {
      "inputs": [],
      "name": "ApprovalQueryForNonexistentToken",
      "type": "error"
    },
    {
      "inputs": [],
      "name": "ApprovalToCurrentOwner",
      "type": "error"
    },
    {
      "inputs": [],
      "name": "ApproveToCaller",
      "type": "error"
    },
    {
      "inputs": [],
      "name": "BalanceQueryForZeroAddress",
      "type": "error"
    },
    {
      "inputs": [],
      "name": "MintToZeroAddress",
      "type": "error"
    },
    {
      "inputs": [],
      "name": "MintZeroQuantity",
      "type": "error"
    },
    {
      "inputs": [],
      "name": "MintedQueryForZeroAddress",
      "type": "error"
    },
    {
      "inputs": [],
      "name": "OwnerIndexOutOfBounds",
      "type": "error"
    },
    {
      "inputs": [],
      "name": "OwnerQueryForNonexistentToken",
      "type": "error"
    },
    {
      "inputs": [],
      "name": "TokenIndexOutOfBounds",
      "type": "error"
    },
    {
      "inputs": [],
      "name": "TransferCallerNotOwnerNorApproved",
      "type": "error"
    },
    {
      "inputs": [],
      "name": "TransferFromIncorrectOwner",
      "type": "error"
    },
    {
      "inputs": [],
      "name": "TransferToNonERC721ReceiverImplementer",
      "type": "error"
    },
    {
      "inputs": [],
      "name": "TransferToZeroAddress",
      "type": "error"
    },
    {
      "inputs": [],
      "name": "URIQueryForNonexistentToken",
      "type": "error"
    },
    {
      "anonymous": false,
      "inputs": [
        {
          "indexed": true,
          "internalType": "address",
          "name": "owner",
          "type": "address"
        },
        {
          "indexed": true,
          "internalType": "address",
          "name": "approved",
          "type": "address"
        },
        {
          "indexed": true,
          "internalType": "uint256",
          "name": "tokenId",
          "type": "uint256"
        }
      ],
      "name": "Approval",
      "type": "event"
    },
    {
      "anonymous": false,
      "inputs": [
        {
          "indexed": true,
          "internalType": "address",
          "name": "owner",
          "type": "address"
        },
        {
          "indexed": true,
          "internalType": "address",
          "name": "operator",
          "type": "address"
        },
        {
          "indexed": false,
          "internalType": "bool",
          "name": "approved",
          "type": "bool"
        }
      ],
      "name": "ApprovalForAll",
      "type": "event"
    },
    {
      "anonymous": false,
      "inputs": [
        {
          "indexed": false,
          "internalType": "string",
          "name": "newBaseURI",
          "type": "string"
        }
      ],
      "name": "BaseURIChanged",
      "type": "event"
    },
    {
      "anonymous": false,
      "inputs": [
        {
          "indexed": false,
          "internalType": "address",
          "name": "minter",
          "type": "address"
        },
        {
          "indexed": false,
          "internalType": "uint256",
          "name": "amount",
          "type": "uint256"
        }
      ],
      "name": "Minted",
      "type": "event"
    },
    {
      "anonymous": false,
      "inputs": [
        {
          "indexed": true,
          "internalType": "address",
          "name": "previousOwner",
          "type": "address"
        },
        {
          "indexed": true,
          "internalType": "address",
          "name": "newOwner",
          "type": "address"
        }
      ],
      "name": "OwnershipTransferred",
      "type": "event"
    },
    {
      "anonymous": false,
      "inputs": [
        {
          "indexed": false,
          "internalType": "enum LHHS.Status",
          "name": "status",
          "type": "uint8"
        }
      ],
      "name": "StatusChanged",
      "type": "event"
    },
    {
      "anonymous": false,
      "inputs": [
        {
          "indexed": true,
          "internalType": "address",
          "name": "from",
          "type": "address"
        },
        {
          "indexed": true,
          "internalType": "address",
          "name": "to",
          "type": "address"
        },
        {
          "indexed": true,
          "internalType": "uint256",
          "name": "tokenId",
          "type": "uint256"
        }
      ],
      "name": "Transfer",
      "type": "event"
    },
    {
      "inputs": [],
      "name": "MAX_MINT_PER_ADDR",
      "outputs": [
        {
          "internalType": "uint256",
          "name": "",
          "type": "uint256"
        }
      ],
      "stateMutability": "view",
      "type": "function"
    },
    {
      "inputs": [],
      "name": "MAX_SUPPLY",
      "outputs": [
        {
          "internalType": "uint256",
          "name": "",
          "type": "uint256"
        }
      ],
      "stateMutability": "view",
      "type": "function"
    },
    {
      "inputs": [],
      "name": "PRICE",
      "outputs": [
        {
          "internalType": "uint256",
          "name": "",
          "type": "uint256"
        }
      ],
      "stateMutability": "view",
      "type": "function"
    },
    {
      "inputs": [
        {
          "internalType": "address",
          "name": "to",
          "type": "address"
        },
        {
          "internalType": "uint256",
          "name": "tokenId",
          "type": "uint256"
        }
      ],
      "name": "approve",
      "outputs": [],
      "stateMutability": "nonpayable",
      "type": "function"
    },
    {
      "inputs": [
        {
          "internalType": "address",
          "name": "owner",
          "type": "address"
        }
      ],
      "name": "balanceOf",
      "outputs": [
        {
          "internalType": "uint256",
          "name": "",
          "type": "uint256"
        }
      ],
      "stateMutability": "view",
      "type": "function"
    },
    {
      "inputs": [],
      "name": "baseURI",
      "outputs": [
        {
          "internalType": "string",
          "name": "",
          "type": "string"
        }
      ],
      "stateMutability": "view",
      "type": "function"
    },
    {
      "inputs": [
        {
          "internalType": "uint256",
          "name": "tokenId",
          "type": "uint256"
        }
      ],
      "name": "getApproved",
      "outputs": [
        {
          "internalType": "address",
          "name": "",
          "type": "address"
        }
      ],
      "stateMutability": "view",
      "type": "function"
    },
    {
      "inputs": [
        {
          "internalType": "uint256",
          "name": "numberOfTokens",
          "type": "uint256"
        }
      ],
      "name": "giveaway",
      "outputs": [],
      "stateMutability": "nonpayable",
      "type": "function"
    },
    {
      "inputs": [
        {
          "internalType": "address",
          "name": "owner",
          "type": "address"
        },
        {
          "internalType": "address",
          "name": "operator",
          "type": "address"
        }
      ],
      "name": "isApprovedForAll",
      "outputs": [
        {
          "internalType": "bool",
          "name": "",
          "type": "bool"
        }
      ],
      "stateMutability": "view",
      "type": "function"
    },
    {
      "inputs": [
        {
          "internalType": "uint256",
          "name": "quantity",
          "type": "uint256"
        }
      ],
      "name": "mint",
      "outputs": [],
      "stateMutability": "payable",
      "type": "function"
    },
    {
      "inputs": [],
      "name": "name",
      "outputs": [
        {
          "internalType": "string",
          "name": "",
          "type": "string"
        }
      ],
      "stateMutability": "view",
      "type": "function"
    },
    {
      "inputs": [
        {
          "internalType": "address",
          "name": "owner",
          "type": "address"
        }
      ],
      "name": "numberMinted",
      "outputs": [
        {
          "internalType": "uint256",
          "name": "",
          "type": "uint256"
        }
      ],
      "stateMutability": "view",
      "type": "function"
    },
    {
      "inputs": [],
      "name": "owner",
      "outputs": [
        {
          "internalType": "address",
          "name": "",
          "type": "address"
        }
      ],
      "stateMutability": "view",
      "type": "function"
    },
    {
      "inputs": [
        {
          "internalType": "uint256",
          "name": "tokenId",
          "type": "uint256"
        }
      ],
      "name": "ownerOf",
      "outputs": [
        {
          "internalType": "address",
          "name": "",
          "type": "address"
        }
      ],
      "stateMutability": "view",
      "type": "function"
    },
    {
      "inputs": [],
      "name": "renounceOwnership",
      "outputs": [],
      "stateMutability": "nonpayable",
      "type": "function"
    },
    {
      "inputs": [
        {
          "internalType": "address",
          "name": "from",
          "type": "address"
        },
        {
          "internalType": "address",
          "name": "to",
          "type": "address"
        },
        {
          "internalType": "uint256",
          "name": "tokenId",
          "type": "uint256"
        }
      ],
      "name": "safeTransferFrom",
      "outputs": [],
      "stateMutability": "nonpayable",
      "type": "function"
    },
    {
      "inputs": [
        {
          "internalType": "address",
          "name": "from",
          "type": "address"
        },
        {
          "internalType": "address",
          "name": "to",
          "type": "address"
        },
        {
          "internalType": "uint256",
          "name": "tokenId",
          "type": "uint256"
        },
        {
          "internalType": "bytes",
          "name": "_data",
          "type": "bytes"
        }
      ],
      "name": "safeTransferFrom",
      "outputs": [],
      "stateMutability": "nonpayable",
      "type": "function"
    },
    {
      "inputs": [
        {
          "internalType": "address",
          "name": "operator",
          "type": "address"
        },
        {
          "internalType": "bool",
          "name": "approved",
          "type": "bool"
        }
      ],
      "name": "setApprovalForAll",
      "outputs": [],
      "stateMutability": "nonpayable",
      "type": "function"
    },
    {
      "inputs": [
        {
          "internalType": "string",
          "name": "newBaseURI",
          "type": "string"
        }
      ],
      "name": "setBaseURI",
      "outputs": [],
      "stateMutability": "nonpayable",
      "type": "function"
    },
    {
      "inputs": [
        {
          "internalType": "enum LHHS.Status",
          "name": "_status",
          "type": "uint8"
        }
      ],
      "name": "setStatus",
      "outputs": [],
      "stateMutability": "nonpayable",
      "type": "function"
    },
    {
      "inputs": [],
      "name": "status",
      "outputs": [
        {
          "internalType": "enum LHHS.Status",
          "name": "",
          "type": "uint8"
        }
      ],
      "stateMutability": "view",
      "type": "function"
    },
    {
      "inputs": [
        {
          "internalType": "bytes4",
          "name": "interfaceId",
          "type": "bytes4"
        }
      ],
      "name": "supportsInterface",
      "outputs": [
        {
          "internalType": "bool",
          "name": "",
          "type": "bool"
        }
      ],
      "stateMutability": "view",
      "type": "function"
    },
    {
      "inputs": [],
      "name": "symbol",
      "outputs": [
        {
          "internalType": "string",
          "name": "",
          "type": "string"
        }
      ],
      "stateMutability": "view",
      "type": "function"
    },
    {
      "inputs": [],
      "name": "team_mint",
      "outputs": [
        {
          "internalType": "uint256",
          "name": "",
          "type": "uint256"
        }
      ],
      "stateMutability": "view",
      "type": "function"
    },
    {
      "inputs": [
        {
          "internalType": "uint256",
          "name": "index",
          "type": "uint256"
        }
      ],
      "name": "tokenByIndex",
      "outputs": [
        {
          "internalType": "uint256",
          "name": "",
          "type": "uint256"
        }
      ],
      "stateMutability": "view",
      "type": "function"
    },
    {
      "inputs": [
        {
          "internalType": "address",
          "name": "owner",
          "type": "address"
        },
        {
          "internalType": "uint256",
          "name": "index",
          "type": "uint256"
        }
      ],
      "name": "tokenOfOwnerByIndex",
      "outputs": [
        {
          "internalType": "uint256",
          "name": "",
          "type": "uint256"
        }
      ],
      "stateMutability": "view",
      "type": "function"
    },
    {
      "inputs": [
        {
          "internalType": "uint256",
          "name": "tokenId",
          "type": "uint256"
        }
      ],
      "name": "tokenURI",
      "outputs": [
        {
          "internalType": "string",
          "name": "",
          "type": "string"
        }
      ],
      "stateMutability": "view",
      "type": "function"
    },
    {
      "inputs": [],
      "name": "totalSupply",
      "outputs": [
        {
          "internalType": "uint256",
          "name": "",
          "type": "uint256"
        }
      ],
      "stateMutability": "view",
      "type": "function"
    },
    {
      "inputs": [
        {
          "internalType": "address",
          "name": "from",
          "type": "address"
        },
        {
          "internalType": "address",
          "name": "to",
          "type": "address"
        },
        {
          "internalType": "uint256",
          "name": "tokenId",
          "type": "uint256"
        }
      ],
      "name": "transferFrom",
      "outputs": [],
      "stateMutability": "nonpayable",
      "type": "function"
    },
    {
      "inputs": [
        {
          "internalType": "address",
          "name": "newOwner",
          "type": "address"
        }
      ],
      "name": "transferOwnership",
      "outputs": [],
      "stateMutability": "nonpayable",
      "type": "function"
    },
    {
      "inputs": [
        {
          "internalType": "address payable",
          "name": "recipient",
          "type": "address"
        }
      ],
      "name": "withdraw",
      "outputs": [],
      "stateMutability": "nonpayable",
      "type": "function"
    }
  ],
  "bytecode": "0x608060405261029a6009553480156200001757600080fd5b50604051620045d1380380620045d183398181016040528101906200003d91906200030d565b6040518060400160405280600781526020017f4c4848534e4654000000000000000000000000000000000000000000000000008152506040518060400160405280600481526020017f4c484853000000000000000000000000000000000000000000000000000000008152508160019080519060200190620000c1929190620001eb565b508060029080519060200190620000da929190620001eb565b505050620000fd620000f16200011d60201b60201c565b6200012560201b60201c565b806008908051906020019062000115929190620001eb565b5050620004c2565b600033905090565b6000600760009054906101000a900473ffffffffffffffffffffffffffffffffffffffff16905081600760006101000a81548173ffffffffffffffffffffffffffffffffffffffff021916908373ffffffffffffffffffffffffffffffffffffffff1602179055508173ffffffffffffffffffffffffffffffffffffffff168173ffffffffffffffffffffffffffffffffffffffff167f8be0079c531659141344cd1fd0a4f28419497f9722a3daafe3b4186f6b6457e060405160405180910390a35050565b828054620001f990620003e7565b90600052602060002090601f0160209004810192826200021d576000855562000269565b82601f106200023857805160ff191683800117855562000269565b8280016001018555821562000269579182015b82811115620002685782518255916020019190600101906200024b565b5b5090506200027891906200027c565b5090565b5b80821115620002975760008160009055506001016200027d565b5090565b6000620002b2620002ac846200037b565b62000352565b905082815260208101848484011115620002cb57600080fd5b620002d8848285620003b1565b509392505050565b600082601f830112620002f257600080fd5b8151620003048482602086016200029b565b91505092915050565b6000602082840312156200032057600080fd5b600082015167ffffffffffffffff8111156200033b57600080fd5b6200034984828501620002e0565b91505092915050565b60006200035e62000371565b90506200036c82826200041d565b919050565b6000604051905090565b600067ffffffffffffffff82111562000399576200039862000482565b5b620003a482620004b1565b9050602081019050919050565b60005b83811015620003d1578082015181840152602081019050620003b4565b83811115620003e1576000848401525b50505050565b600060028204905060018216806200040057607f821691505b6020821081141562000417576200041662000453565b5b50919050565b6200042882620004b1565b810181811067ffffffffffffffff821117156200044a576200044962000482565b5b80604052505050565b7f4e487b7100000000000000000000000000000000000000000000000000000000600052602260045260246000fd5b7f4e487b7100000000000000000000000000000000000000000000000000000000600052604160045260246000fd5b6000601f19601f8301169050919050565b6140ff80620004d26000396000f3fe6080604052600436106101d85760003560e01c806355f804b31161010257806395d89b4111610095578063c87b56dd11610064578063c87b56dd1461069d578063dc33e681146106da578063e985e9c514610717578063f2fde38b14610754576101d8565b806395d89b4114610604578063a0712d681461062f578063a22cb4651461064b578063b88d4fde14610674576101d8565b8063715018a6116100d1578063715018a61461056e578063799b31e8146105855780638d859f3e146105ae5780638da5cb5b146105d9576101d8565b806355f804b3146104a05780636352211e146104c95780636c0360eb1461050657806370a0823114610531576101d8565b806323b872dd1161017a57806342842e0e1161014957806342842e0e146103e65780634f423a9d1461040f5780634f6ccce71461043a57806351cff8d914610477576101d8565b806323b872dd1461032c5780632e49d78b146103555780632f745c591461037e57806332cb6b0c146103bb576101d8565b8063095ea7b3116101b6578063095ea7b31461028257806316154862146102ab57806318160ddd146102d6578063200d2ed214610301576101d8565b806301ffc9a7146101dd57806306fdde031461021a578063081812fc14610245575b600080fd5b3480156101e957600080fd5b5061020460048036038101906101ff919061338e565b61077d565b60405161021191906137cd565b60405180910390f35b34801561022657600080fd5b5061022f6108c7565b60405161023c9190613827565b60405180910390f35b34801561025157600080fd5b5061026c6004803603810190610267919061344e565b610959565b604051610279919061373d565b60405180910390f35b34801561028e57600080fd5b506102a960048036038101906102a49190613352565b6109d5565b005b3480156102b757600080fd5b506102c0610ae0565b6040516102cd9190613989565b60405180910390f35b3480156102e257600080fd5b506102eb610ae5565b6040516102f89190613989565b60405180910390f35b34801561030d57600080fd5b50610316610b3a565b60405161032391906137e8565b60405180910390f35b34801561033857600080fd5b50610353600480360381019061034e919061324c565b610b4d565b005b34801561036157600080fd5b5061037c600480360381019061037791906133e0565b610b5d565b005b34801561038a57600080fd5b506103a560048036038101906103a09190613352565b610c72565b6040516103b29190613989565b60405180910390f35b3480156103c757600080fd5b506103d0610e79565b6040516103dd9190613989565b60405180910390f35b3480156103f257600080fd5b5061040d6004803603810190610408919061324c565b610e7f565b005b34801561041b57600080fd5b50610424610e9f565b6040516104319190613989565b60405180910390f35b34801561044657600080fd5b50610461600480360381019061045c919061344e565b610ea5565b60405161046e9190613989565b60405180910390f35b34801561048357600080fd5b5061049e600480360381019061049991906131e7565b611016565b005b3480156104ac57600080fd5b506104c760048036038101906104c29190613409565b611148565b005b3480156104d557600080fd5b506104f060048036038101906104eb919061344e565b611213565b6040516104fd919061373d565b60405180910390f35b34801561051257600080fd5b5061051b611229565b6040516105289190613827565b60405180910390f35b34801561053d57600080fd5b50610558600480360381019061055391906131be565b6112b7565b6040516105659190613989565b60405180910390f35b34801561057a57600080fd5b50610583611387565b005b34801561059157600080fd5b506105ac60048036038101906105a7919061344e565b61140f565b005b3480156105ba57600080fd5b506105c361153b565b6040516105d09190613989565b60405180910390f35b3480156105e557600080fd5b506105ee611546565b6040516105fb919061373d565b60405180910390f35b34801561061057600080fd5b50610619611570565b6040516106269190613827565b60405180910390f35b6106496004803603810190610644919061344e565b611602565b005b34801561065757600080fd5b50610672600480360381019061066d9190613316565b611841565b005b34801561068057600080fd5b5061069b6004803603810190610696919061329b565b6119b9565b005b3480156106a957600080fd5b506106c460048036038101906106bf919061344e565b611a0c565b6040516106d19190613827565b60405180910390f35b3480156106e657600080fd5b5061070160048036038101906106fc91906131be565b611aab565b60405161070e9190613989565b60405180910390f35b34801561072357600080fd5b5061073e60048036038101906107399190613210565b611abd565b60405161074b91906137cd565b60405180910390f35b34801561076057600080fd5b5061077b600480360381019061077691906131be565b611b51565b005b60007f80ac58cd000000000000000000000000000000000000000000000000000000007bffffffffffffffffffffffffffffffffffffffffffffffffffffffff1916827bffffffffffffffffffffffffffffffffffffffffffffffffffffffff1916148061084857507f5b5e139f000000000000000000000000000000000000000000000000000000007bffffffffffffffffffffffffffffffffffffffffffffffffffffffff1916827bffffffffffffffffffffffffffffffffffffffffffffffffffffffff1916145b806108b057507f780e9d63000000000000000000000000000000000000000000000000000000007bffffffffffffffffffffffffffffffffffffffffffffffffffffffff1916827bffffffffffffffffffffffffffffffffffffffffffffffffffffffff1916145b806108c057506108bf82611c49565b5b9050919050565b6060600180546108d690613c4a565b80601f016020809104026020016040519081016040528092919081815260200182805461090290613c4a565b801561094f5780601f106109245761010080835404028352916020019161094f565b820191906000526020600020905b81548152906001019060200180831161093257829003601f168201915b5050505050905090565b600061096482611cb3565b61099a576040517fcf4700e400000000000000000000000000000000000000000000000000000000815260040160405180910390fd5b6005600083815260200190815260200160002060009054906101000a900473ffffffffffffffffffffffffffffffffffffffff169050919050565b60006109e082611213565b90508073ffffffffffffffffffffffffffffffffffffffff168373ffffffffffffffffffffffffffffffffffffffff161415610a48576040517f943f7b8c00000000000000000000000000000000000000000000000000000000815260040160405180910390fd5b8073ffffffffffffffffffffffffffffffffffffffff16610a67611d1b565b73ffffffffffffffffffffffffffffffffffffffff1614158015610a995750610a9781610a92611d1b565b611abd565b155b15610ad0576040517fcfb3b94200000000000000000000000000000000000000000000000000000000815260040160405180910390fd5b610adb838383611d23565b505050565b600a81565b60008060109054906101000a90046fffffffffffffffffffffffffffffffff1660008054906101000a90046fffffffffffffffffffffffffffffffff16036fffffffffffffffffffffffffffffffff16905090565b600760149054906101000a900460ff1681565b610b58838383611dd5565b505050565b610b65611d1b565b73ffffffffffffffffffffffffffffffffffffffff16610b83611546565b73ffffffffffffffffffffffffffffffffffffffff1614610bd9576040517f08c379a0000000000000000000000000000000000000000000000000000000008152600401610bd0906138c9565b60405180910390fd5b80600760146101000a81548160ff02191690836002811115610c24577f4e487b7100000000000000000000000000000000000000000000000000000000600052602160045260246000fd5b02179055507fafa725e7f44cadb687a7043853fa1a7e7b8f0da74ce87ec546e9420f04da8c1e600760149054906101000a900460ff16604051610c6791906137e8565b60405180910390a150565b6000610c7d836112b7565b8210610cb5576040517f0ddac30e00000000000000000000000000000000000000000000000000000000815260040160405180910390fd5b60008060009054906101000a90046fffffffffffffffffffffffffffffffff166fffffffffffffffffffffffffffffffff16905060008060005b83811015610e6d576000600360008381526020019081526020016000206040518060600160405290816000820160009054906101000a900473ffffffffffffffffffffffffffffffffffffffff1673ffffffffffffffffffffffffffffffffffffffff1673ffffffffffffffffffffffffffffffffffffffff1681526020016000820160149054906101000a900467ffffffffffffffff1667ffffffffffffffff1667ffffffffffffffff16815260200160008201601c9054906101000a900460ff1615151515815250509050806040015115610dcc5750610e60565b600073ffffffffffffffffffffffffffffffffffffffff16816000015173ffffffffffffffffffffffffffffffffffffffff1614610e0c57806000015192505b8773ffffffffffffffffffffffffffffffffffffffff168373ffffffffffffffffffffffffffffffffffffffff161415610e5e5786841415610e55578195505050505050610e73565b83806001019450505b505b8080600101915050610cef565b50600080fd5b92915050565b611a0a81565b610e9a838383604051806020016040528060008152506119b9565b505050565b60095481565b60008060008054906101000a90046fffffffffffffffffffffffffffffffff166fffffffffffffffffffffffffffffffff1690506000805b82811015610fde576000600360008381526020019081526020016000206040518060600160405290816000820160009054906101000a900473ffffffffffffffffffffffffffffffffffffffff1673ffffffffffffffffffffffffffffffffffffffff1673ffffffffffffffffffffffffffffffffffffffff1681526020016000820160149054906101000a900467ffffffffffffffff1667ffffffffffffffff1667ffffffffffffffff16815260200160008201601c9054906101000a900460ff16151515158152505090508060400151610fd05785831415610fc75781945050505050611011565b82806001019350505b508080600101915050610edd565b506040517fa723001c00000000000000000000000000000000000000000000000000000000815260040160405180910390fd5b919050565b61101e611d1b565b73ffffffffffffffffffffffffffffffffffffffff1661103c611546565b73ffffffffffffffffffffffffffffffffffffffff1614611092576040517f08c379a0000000000000000000000000000000000000000000000000000000008152600401611089906138c9565b60405180910390fd5b600047905060008273ffffffffffffffffffffffffffffffffffffffff16826040516110bd90613728565b60006040518083038185875af1925050503d80600081146110fa576040519150601f19603f3d011682016040523d82523d6000602084013e6110ff565b606091505b5050905080611143576040517f08c379a000000000000000000000000000000000000000000000000000000000815260040161113a906138a9565b60405180910390fd5b505050565b611150611d1b565b73ffffffffffffffffffffffffffffffffffffffff1661116e611546565b73ffffffffffffffffffffffffffffffffffffffff16146111c4576040517f08c379a00000000000000000000000000000000000000000000000000000000081526004016111bb906138c9565b60405180910390fd5b8181600891906111d5929190612f93565b507f5411e8ebf1636d9e83d5fc4900bf80cbac82e8790da2a4c94db4895e889eedf68282604051611207929190613803565b60405180910390a15050565b600061121e826122f2565b600001519050919050565b6008805461123690613c4a565b80601f016020809104026020016040519081016040528092919081815260200182805461126290613c4a565b80156112af5780601f10611284576101008083540402835291602001916112af565b820191906000526020600020905b81548152906001019060200180831161129257829003601f168201915b505050505081565b60008073ffffffffffffffffffffffffffffffffffffffff168273ffffffffffffffffffffffffffffffffffffffff16141561131f576040517f8f4eb60400000000000000000000000000000000000000000000000000000000815260040160405180910390fd5b600460008373ffffffffffffffffffffffffffffffffffffffff1673ffffffffffffffffffffffffffffffffffffffff16815260200190815260200160002060000160009054906101000a900467ffffffffffffffff1667ffffffffffffffff169050919050565b61138f611d1b565b73ffffffffffffffffffffffffffffffffffffffff166113ad611546565b73ffffffffffffffffffffffffffffffffffffffff1614611403576040517f08c379a00000000000000000000000000000000000000000000000000000000081526004016113fa906138c9565b60405180910390fd5b61140d600061259a565b565b611417611d1b565b73ffffffffffffffffffffffffffffffffffffffff16611435611546565b73ffffffffffffffffffffffffffffffffffffffff161461148b576040517f08c379a0000000000000000000000000000000000000000000000000000000008152600401611482906138c9565b60405180910390fd5b6000600954116114d0576040517f08c379a00000000000000000000000000000000000000000000000000000000081526004016114c790613869565b60405180910390fd5b600954811115611515576040517f08c379a000000000000000000000000000000000000000000000000000000000815260040161150c90613909565b60405180910390fd5b80600960008282546115279190613b29565b925050819055506115383382612660565b50565b661772aa3f84800081565b6000600760009054906101000a900473ffffffffffffffffffffffffffffffffffffffff16905090565b60606002805461157f90613c4a565b80601f01602080910402602001604051908101604052809291908181526020018280546115ab90613c4a565b80156115f85780601f106115cd576101008083540402835291602001916115f8565b820191906000526020600020905b8154815290600101906020018083116115db57829003601f168201915b5050505050905090565b6001600281111561163c577f4e487b7100000000000000000000000000000000000000000000000000000000600052602160045260246000fd5b600760149054906101000a900460ff166002811115611684577f4e487b7100000000000000000000000000000000000000000000000000000000600052602160045260246000fd5b146116c4576040517f08c379a00000000000000000000000000000000000000000000000000000000081526004016116bb90613969565b60405180910390fd5b3373ffffffffffffffffffffffffffffffffffffffff163273ffffffffffffffffffffffffffffffffffffffff1614611732576040517f08c379a000000000000000000000000000000000000000000000000000000000815260040161172990613889565b60405180910390fd5b600a8161173e33611aab565b6117489190613a48565b1115611789576040517f08c379a0000000000000000000000000000000000000000000000000000000008152600401611780906138e9565b60405180910390fd5b611a0a81611795610ae5565b61179f9190613a48565b11156117e0576040517f08c379a00000000000000000000000000000000000000000000000000000000081526004016117d790613929565b60405180910390fd5b6117ea3382612660565b61180581661772aa3f8480006118009190613acf565b61267e565b7f30385c845b448a36257a6a1716e6ad2e1bc2cbe333cde1e69fe849ad6511adfe33826040516118369291906137a4565b60405180910390a150565b611849611d1b565b73ffffffffffffffffffffffffffffffffffffffff168273ffffffffffffffffffffffffffffffffffffffff1614156118ae576040517fb06307db00000000000000000000000000000000000000000000000000000000815260040160405180910390fd5b80600660006118bb611d1b565b73ffffffffffffffffffffffffffffffffffffffff1673ffffffffffffffffffffffffffffffffffffffff16815260200190815260200160002060008473ffffffffffffffffffffffffffffffffffffffff1673ffffffffffffffffffffffffffffffffffffffff16815260200190815260200160002060006101000a81548160ff0219169083151502179055508173ffffffffffffffffffffffffffffffffffffffff16611968611d1b565b73ffffffffffffffffffffffffffffffffffffffff167f17307eab39ab6107e8899845ad3d59bd9653f200f220920489ca2b5937696c31836040516119ad91906137cd565b60405180910390a35050565b6119c4848484611dd5565b6119d08484848461271f565b611a06576040517fd1a57ed600000000000000000000000000000000000000000000000000000000815260040160405180910390fd5b50505050565b6060611a1782611cb3565b611a4d576040517fa14c4b5000000000000000000000000000000000000000000000000000000000815260040160405180910390fd5b6000611a576128ad565b9050600081511415611a785760405180602001604052806000815250611aa3565b80611a828461293f565b604051602001611a93929190613704565b6040516020818303038152906040525b915050919050565b6000611ab682612aec565b9050919050565b6000600660008473ffffffffffffffffffffffffffffffffffffffff1673ffffffffffffffffffffffffffffffffffffffff16815260200190815260200160002060008373ffffffffffffffffffffffffffffffffffffffff1673ffffffffffffffffffffffffffffffffffffffff16815260200190815260200160002060009054906101000a900460ff16905092915050565b611b59611d1b565b73ffffffffffffffffffffffffffffffffffffffff16611b77611546565b73ffffffffffffffffffffffffffffffffffffffff1614611bcd576040517f08c379a0000000000000000000000000000000000000000000000000000000008152600401611bc4906138c9565b60405180910390fd5b600073ffffffffffffffffffffffffffffffffffffffff168173ffffffffffffffffffffffffffffffffffffffff161415611c3d576040517f08c379a0000000000000000000000000000000000000000000000000000000008152600401611c3490613849565b60405180910390fd5b611c468161259a565b50565b60007f01ffc9a7000000000000000000000000000000000000000000000000000000007bffffffffffffffffffffffffffffffffffffffffffffffffffffffff1916827bffffffffffffffffffffffffffffffffffffffffffffffffffffffff1916149050919050565b60008060009054906101000a90046fffffffffffffffffffffffffffffffff166fffffffffffffffffffffffffffffffff1682108015611d14575060036000838152602001908152602001600020600001601c9054906101000a900460ff16155b9050919050565b600033905090565b826005600084815260200190815260200160002060006101000a81548173ffffffffffffffffffffffffffffffffffffffff021916908373ffffffffffffffffffffffffffffffffffffffff160217905550818373ffffffffffffffffffffffffffffffffffffffff168273ffffffffffffffffffffffffffffffffffffffff167f8c5be1e5ebec7d5bd14f71427d1e84f3dd0314c0f7b2291e5b200ac8c7c3b92560405160405180910390a4505050565b6000611de0826122f2565b90506000816000015173ffffffffffffffffffffffffffffffffffffffff16611e07611d1b565b73ffffffffffffffffffffffffffffffffffffffff161480611e3a5750611e398260000151611e34611d1b565b611abd565b5b80611e7f5750611e48611d1b565b73ffffffffffffffffffffffffffffffffffffffff16611e6784610959565b73ffffffffffffffffffffffffffffffffffffffff16145b905080611eb8576040517f59c896be00000000000000000000000000000000000000000000000000000000815260040160405180910390fd5b8473ffffffffffffffffffffffffffffffffffffffff16826000015173ffffffffffffffffffffffffffffffffffffffff1614611f21576040517fa114810000000000000000000000000000000000000000000000000000000000815260040160405180910390fd5b600073ffffffffffffffffffffffffffffffffffffffff168473ffffffffffffffffffffffffffffffffffffffff161415611f88576040517fea553b3400000000000000000000000000000000000000000000000000000000815260040160405180910390fd5b611f958585856001612bbc565b611fa56000848460000151611d23565b6001600460008773ffffffffffffffffffffffffffffffffffffffff1673ffffffffffffffffffffffffffffffffffffffff16815260200190815260200160002060000160008282829054906101000a900467ffffffffffffffff160392506101000a81548167ffffffffffffffff021916908367ffffffffffffffff1602179055506001600460008673ffffffffffffffffffffffffffffffffffffffff1673ffffffffffffffffffffffffffffffffffffffff16815260200190815260200160002060000160008282829054906101000a900467ffffffffffffffff160192506101000a81548167ffffffffffffffff021916908367ffffffffffffffff160217905550836003600085815260200190815260200160002060000160006101000a81548173ffffffffffffffffffffffffffffffffffffffff021916908373ffffffffffffffffffffffffffffffffffffffff160217905550426003600085815260200190815260200160002060000160146101000a81548167ffffffffffffffff021916908367ffffffffffffffff1602179055506000600184019050600073ffffffffffffffffffffffffffffffffffffffff166003600083815260200190815260200160002060000160009054906101000a900473ffffffffffffffffffffffffffffffffffffffff1673ffffffffffffffffffffffffffffffffffffffff1614156122825760008054906101000a90046fffffffffffffffffffffffffffffffff166fffffffffffffffffffffffffffffffff168110156122815782600001516003600083815260200190815260200160002060000160006101000a81548173ffffffffffffffffffffffffffffffffffffffff021916908373ffffffffffffffffffffffffffffffffffffffff16021790555082602001516003600083815260200190815260200160002060000160146101000a81548167ffffffffffffffff021916908367ffffffffffffffff1602179055505b5b50828473ffffffffffffffffffffffffffffffffffffffff168673ffffffffffffffffffffffffffffffffffffffff167fddf252ad1be2c89b69c2b068fc378daa952ba7f163c4a11628f55a4df523b3ef60405160405180910390a46122eb8585856001612bc2565b5050505050565b6122fa613019565b600082905060008054906101000a90046fffffffffffffffffffffffffffffffff166fffffffffffffffffffffffffffffffff16811015612563576000600360008381526020019081526020016000206040518060600160405290816000820160009054906101000a900473ffffffffffffffffffffffffffffffffffffffff1673ffffffffffffffffffffffffffffffffffffffff1673ffffffffffffffffffffffffffffffffffffffff1681526020016000820160149054906101000a900467ffffffffffffffff1667ffffffffffffffff1667ffffffffffffffff16815260200160008201601c9054906101000a900460ff1615151515815250509050806040015161256157600073ffffffffffffffffffffffffffffffffffffffff16816000015173ffffffffffffffffffffffffffffffffffffffff1614612445578092505050612595565b5b60011561256057818060019003925050600360008381526020019081526020016000206040518060600160405290816000820160009054906101000a900473ffffffffffffffffffffffffffffffffffffffff1673ffffffffffffffffffffffffffffffffffffffff1673ffffffffffffffffffffffffffffffffffffffff1681526020016000820160149054906101000a900467ffffffffffffffff1667ffffffffffffffff1667ffffffffffffffff16815260200160008201601c9054906101000a900460ff1615151515815250509050600073ffffffffffffffffffffffffffffffffffffffff16816000015173ffffffffffffffffffffffffffffffffffffffff161461255b578092505050612595565b612446565b5b505b6040517fdf2d9b4200000000000000000000000000000000000000000000000000000000815260040160405180910390fd5b919050565b6000600760009054906101000a900473ffffffffffffffffffffffffffffffffffffffff16905081600760006101000a81548173ffffffffffffffffffffffffffffffffffffffff021916908373ffffffffffffffffffffffffffffffffffffffff1602179055508173ffffffffffffffffffffffffffffffffffffffff168173ffffffffffffffffffffffffffffffffffffffff167f8be0079c531659141344cd1fd0a4f28419497f9722a3daafe3b4186f6b6457e060405160405180910390a35050565b61267a828260405180602001604052806000815250612bc8565b5050565b803410156126c1576040517f08c379a00000000000000000000000000000000000000000000000000000000081526004016126b890613949565b60405180910390fd5b8034111561271c573373ffffffffffffffffffffffffffffffffffffffff166108fc82346126ef9190613b29565b9081150290604051600060405180830381858888f1935050505015801561271a573d6000803e3d6000fd5b505b50565b60006127408473ffffffffffffffffffffffffffffffffffffffff16612bda565b156128a0578373ffffffffffffffffffffffffffffffffffffffff1663150b7a02612769611d1b565b8786866040518563ffffffff1660e01b815260040161278b9493929190613758565b602060405180830381600087803b1580156127a557600080fd5b505af19250505080156127d657506040513d601f19601f820116820180604052508101906127d391906133b7565b60015b612850573d8060008114612806576040519150601f19603f3d011682016040523d82523d6000602084013e61280b565b606091505b50600081511415612848576040517fd1a57ed600000000000000000000000000000000000000000000000000000000815260040160405180910390fd5b805181602001fd5b63150b7a0260e01b7bffffffffffffffffffffffffffffffffffffffffffffffffffffffff1916817bffffffffffffffffffffffffffffffffffffffffffffffffffffffff1916149150506128a5565b600190505b949350505050565b6060600880546128bc90613c4a565b80601f01602080910402602001604051908101604052809291908181526020018280546128e890613c4a565b80156129355780601f1061290a57610100808354040283529160200191612935565b820191906000526020600020905b81548152906001019060200180831161291857829003601f168201915b5050505050905090565b60606000821415612987576040518060400160405280600181526020017f30000000000000000000000000000000000000000000000000000000000000008152509050612ae7565b600082905060005b600082146129b95780806129a290613cad565b915050600a826129b29190613a9e565b915061298f565b60008167ffffffffffffffff8111156129fb577f4e487b7100000000000000000000000000000000000000000000000000000000600052604160045260246000fd5b6040519080825280601f01601f191660200182016040528015612a2d5781602001600182028036833780820191505090505b5090505b60008514612ae057600182612a469190613b29565b9150600a85612a559190613cf6565b6030612a619190613a48565b60f81b818381518110612a9d577f4e487b7100000000000000000000000000000000000000000000000000000000600052603260045260246000fd5b60200101907effffffffffffffffffffffffffffffffffffffffffffffffffffffffffffff1916908160001a905350600a85612ad99190613a9e565b9450612a31565b8093505050505b919050565b60008073ffffffffffffffffffffffffffffffffffffffff168273ffffffffffffffffffffffffffffffffffffffff161415612b54576040517f35ebb31900000000000000000000000000000000000000000000000000000000815260040160405180910390fd5b600460008373ffffffffffffffffffffffffffffffffffffffff1673ffffffffffffffffffffffffffffffffffffffff16815260200190815260200160002060000160089054906101000a900467ffffffffffffffff1667ffffffffffffffff169050919050565b50505050565b50505050565b612bd58383836001612bfd565b505050565b6000808273ffffffffffffffffffffffffffffffffffffffff163b119050919050565b60008060009054906101000a90046fffffffffffffffffffffffffffffffff166fffffffffffffffffffffffffffffffff169050600073ffffffffffffffffffffffffffffffffffffffff168573ffffffffffffffffffffffffffffffffffffffff161415612c98576040517f2e07630000000000000000000000000000000000000000000000000000000000815260040160405180910390fd5b6000841415612cd3576040517fb562e8dd00000000000000000000000000000000000000000000000000000000815260040160405180910390fd5b612ce06000868387612bbc565b83600460008773ffffffffffffffffffffffffffffffffffffffff1673ffffffffffffffffffffffffffffffffffffffff16815260200190815260200160002060000160008282829054906101000a900467ffffffffffffffff160192506101000a81548167ffffffffffffffff021916908367ffffffffffffffff16021790555083600460008773ffffffffffffffffffffffffffffffffffffffff1673ffffffffffffffffffffffffffffffffffffffff16815260200190815260200160002060000160088282829054906101000a900467ffffffffffffffff160192506101000a81548167ffffffffffffffff021916908367ffffffffffffffff160217905550846003600083815260200190815260200160002060000160006101000a81548173ffffffffffffffffffffffffffffffffffffffff021916908373ffffffffffffffffffffffffffffffffffffffff160217905550426003600083815260200190815260200160002060000160146101000a81548167ffffffffffffffff021916908367ffffffffffffffff160217905550600081905060005b85811015612f4557818773ffffffffffffffffffffffffffffffffffffffff16600073ffffffffffffffffffffffffffffffffffffffff167fddf252ad1be2c89b69c2b068fc378daa952ba7f163c4a11628f55a4df523b3ef60405160405180910390a4838015612ef95750612ef7600088848861271f565b155b15612f30576040517fd1a57ed600000000000000000000000000000000000000000000000000000000815260040160405180910390fd5b81806001019250508080600101915050612e7e565b50806000806101000a8154816fffffffffffffffffffffffffffffffff02191690836fffffffffffffffffffffffffffffffff16021790555050612f8c6000868387612bc2565b5050505050565b828054612f9f90613c4a565b90600052602060002090601f016020900481019282612fc15760008555613008565b82601f10612fda57803560ff1916838001178555613008565b82800160010185558215613008579182015b82811115613007578235825591602001919060010190612fec565b5b509050613015919061305c565b5090565b6040518060600160405280600073ffffffffffffffffffffffffffffffffffffffff168152602001600067ffffffffffffffff1681526020016000151581525090565b5b8082111561307557600081600090555060010161305d565b5090565b600061308c613087846139c9565b6139a4565b9050828152602081018484840111156130a457600080fd5b6130af848285613c08565b509392505050565b6000813590506130c681614046565b92915050565b6000813590506130db8161405d565b92915050565b6000813590506130f081614074565b92915050565b6000813590506131058161408b565b92915050565b60008151905061311a8161408b565b92915050565b600082601f83011261313157600080fd5b8135613141848260208601613079565b91505092915050565b600081359050613159816140a2565b92915050565b60008083601f84011261317157600080fd5b8235905067ffffffffffffffff81111561318a57600080fd5b6020830191508360018202830111156131a257600080fd5b9250929050565b6000813590506131b8816140b2565b92915050565b6000602082840312156131d057600080fd5b60006131de848285016130b7565b91505092915050565b6000602082840312156131f957600080fd5b6000613207848285016130cc565b91505092915050565b6000806040838503121561322357600080fd5b6000613231858286016130b7565b9250506020613242858286016130b7565b9150509250929050565b60008060006060848603121561326157600080fd5b600061326f868287016130b7565b9350506020613280868287016130b7565b9250506040613291868287016131a9565b9150509250925092565b600080600080608085870312156132b157600080fd5b60006132bf878288016130b7565b94505060206132d0878288016130b7565b93505060406132e1878288016131a9565b925050606085013567ffffffffffffffff8111156132fe57600080fd5b61330a87828801613120565b91505092959194509250565b6000806040838503121561332957600080fd5b6000613337858286016130b7565b9250506020613348858286016130e1565b9150509250929050565b6000806040838503121561336557600080fd5b6000613373858286016130b7565b9250506020613384858286016131a9565b9150509250929050565b6000602082840312156133a057600080fd5b60006133ae848285016130f6565b91505092915050565b6000602082840312156133c957600080fd5b60006133d78482850161310b565b91505092915050565b6000602082840312156133f257600080fd5b60006134008482850161314a565b91505092915050565b6000806020838503121561341c57600080fd5b600083013567ffffffffffffffff81111561343657600080fd5b6134428582860161315f565b92509250509250929050565b60006020828403121561346057600080fd5b600061346e848285016131a9565b91505092915050565b61348081613b5d565b82525050565b61348f81613b81565b82525050565b60006134a0826139fa565b6134aa8185613a10565b93506134ba818560208601613c17565b6134c381613e12565b840191505092915050565b6134d781613bf6565b82525050565b60006134e98385613a2c565b93506134f6838584613c08565b6134ff83613e12565b840190509392505050565b600061351582613a05565b61351f8185613a2c565b935061352f818560208601613c17565b61353881613e12565b840191505092915050565b600061354e82613a05565b6135588185613a3d565b9350613568818560208601613c17565b80840191505092915050565b6000613581602683613a2c565b915061358c82613e23565b604082019050919050565b60006135a4602183613a2c565b91506135af82613e72565b604082019050919050565b60006135c7602183613a2c565b91506135d282613ec1565b604082019050919050565b60006135ea601a83613a2c565b91506135f582613f10565b602082019050919050565b600061360d602083613a2c565b915061361882613f39565b602082019050919050565b6000613630601283613a2c565b915061363b82613f62565b602082019050919050565b6000613653601983613a2c565b915061365e82613f8b565b602082019050919050565b6000613676601883613a2c565b915061368182613fb4565b602082019050919050565b6000613699600083613a21565b91506136a482613fdd565b600082019050919050565b60006136bc601683613a2c565b91506136c782613fe0565b602082019050919050565b60006136df601683613a2c565b91506136ea82614009565b602082019050919050565b6136fe81613bec565b82525050565b60006137108285613543565b915061371c8284613543565b91508190509392505050565b60006137338261368c565b9150819050919050565b60006020820190506137526000830184613477565b92915050565b600060808201905061376d6000830187613477565b61377a6020830186613477565b61378760408301856136f5565b81810360608301526137998184613495565b905095945050505050565b60006040820190506137b96000830185613477565b6137c660208301846136f5565b9392505050565b60006020820190506137e26000830184613486565b92915050565b60006020820190506137fd60008301846134ce565b92915050565b6000602082019050818103600083015261381e8184866134dd565b90509392505050565b60006020820190508181036000830152613841818461350a565b905092915050565b6000602082019050818103600083015261386281613574565b9050919050565b6000602082019050818103600083015261388281613597565b9050919050565b600060208201905081810360008301526138a2816135ba565b9050919050565b600060208201905081810360008301526138c2816135dd565b9050919050565b600060208201905081810360008301526138e281613600565b9050919050565b6000602082019050818103600083015261390281613623565b9050919050565b6000602082019050818103600083015261392281613646565b9050919050565b6000602082019050818103600083015261394281613669565b9050919050565b60006020820190508181036000830152613962816136af565b9050919050565b60006020820190508181036000830152613982816136d2565b9050919050565b600060208201905061399e60008301846136f5565b92915050565b60006139ae6139bf565b90506139ba8282613c7c565b919050565b6000604051905090565b600067ffffffffffffffff8211156139e4576139e3613de3565b5b6139ed82613e12565b9050602081019050919050565b600081519050919050565b600081519050919050565b600082825260208201905092915050565b600081905092915050565b600082825260208201905092915050565b600081905092915050565b6000613a5382613bec565b9150613a5e83613bec565b9250827fffffffffffffffffffffffffffffffffffffffffffffffffffffffffffffffff03821115613a9357613a92613d27565b5b828201905092915050565b6000613aa982613bec565b9150613ab483613bec565b925082613ac457613ac3613d56565b5b828204905092915050565b6000613ada82613bec565b9150613ae583613bec565b9250817fffffffffffffffffffffffffffffffffffffffffffffffffffffffffffffffff0483118215151615613b1e57613b1d613d27565b5b828202905092915050565b6000613b3482613bec565b9150613b3f83613bec565b925082821015613b5257613b51613d27565b5b828203905092915050565b6000613b6882613bcc565b9050919050565b6000613b7a82613bcc565b9050919050565b60008115159050919050565b60007fffffffff0000000000000000000000000000000000000000000000000000000082169050919050565b6000819050613bc782614032565b919050565b600073ffffffffffffffffffffffffffffffffffffffff82169050919050565b6000819050919050565b6000613c0182613bb9565b9050919050565b82818337600083830152505050565b60005b83811015613c35578082015181840152602081019050613c1a565b83811115613c44576000848401525b50505050565b60006002820490506001821680613c6257607f821691505b60208210811415613c7657613c75613db4565b5b50919050565b613c8582613e12565b810181811067ffffffffffffffff82111715613ca457613ca3613de3565b5b80604052505050565b6000613cb882613bec565b91507fffffffffffffffffffffffffffffffffffffffffffffffffffffffffffffffff821415613ceb57613cea613d27565b5b600182019050919050565b6000613d0182613bec565b9150613d0c83613bec565b925082613d1c57613d1b613d56565b5b828206905092915050565b7f4e487b7100000000000000000000000000000000000000000000000000000000600052601160045260246000fd5b7f4e487b7100000000000000000000000000000000000000000000000000000000600052601260045260246000fd5b7f4e487b7100000000000000000000000000000000000000000000000000000000600052602160045260246000fd5b7f4e487b7100000000000000000000000000000000000000000000000000000000600052602260045260246000fd5b7f4e487b7100000000000000000000000000000000000000000000000000000000600052604160045260246000fd5b6000601f19601f8301169050919050565b7f4f776e61626c653a206e6577206f776e657220697320746865207a65726f206160008201527f6464726573730000000000000000000000000000000000000000000000000000602082015250565b7f4e4654535f464f525f5448455f5445414d5f4841535f4245454e5f4d494e544560008201527f4400000000000000000000000000000000000000000000000000000000000000602082015250565b7f4c4848533a2042752079756e20787520686520797565206469616f20796f6e6760008201527f2e00000000000000000000000000000000000000000000000000000000000000602082015250565b7f4c4848533a2057616e206c652c207175616e2077616e206c652e000000000000600082015250565b7f4f776e61626c653a2063616c6c6572206973206e6f7420746865206f776e6572600082015250565b7f4c4848533a205a75692064756f206c69612e0000000000000000000000000000600082015250565b7f455843454544535f4d41585f4d494e545f464f525f5445414d00000000000000600082015250565b7f4c4848533a204d6569207a6865206d652064756f206c652e0000000000000000600082015250565b50565b7f4c4848533a204d65692064756f20676569204554482e00000000000000000000600082015250565b7f4c4848533a20486169206d6569206b6169207368692e00000000000000000000600082015250565b6003811061404357614042613d85565b5b50565b61404f81613b5d565b811461405a57600080fd5b50565b61406681613b6f565b811461407157600080fd5b50565b61407d81613b81565b811461408857600080fd5b50565b61409481613b8d565b811461409f57600080fd5b50565b600381106140af57600080fd5b50565b6140bb81613bec565b81146140c657600080fd5b5056fea26469706673582212206418991f6ea266fa0d0ea35abcfb27e7fd921589579d0e2edc117508faa03dd964736f6c63430008040033",
  "linkReferences": {},
  "deployedLinkReferences": {}
}