{
  "_format": "hh-sol-artifact-1",
  "contractName": "LHHS",
  "sourceName": "contracts/LHHS.sol",
  "abi": [
    {
      "inputs": [
        {
          "internalType": "string",
          "name": "initBaseURI",
          "type": "string"
        }
      ],
      "stateMutability": "nonpayable",
      "type": "constructor"
    },
    {
      "inputs": [],
      "name": "ApprovalCallerNotOwnerNorApproved",
      "type": "error"
    },
    {
      "inputs": [],
      "name": "ApprovalQueryForNonexistentToken",
      "type": "error"
    },
    {
      "inputs": [],
      "name": "ApprovalToCurrentOwner",
      "type": "error"
    },
    {
      "inputs": [],
      "name": "ApproveToCaller",
      "type": "error"
    },
    {
      "inputs": [],
      "name": "BalanceQueryForZeroAddress",
      "type": "error"
    },
    {
      "inputs": [],
      "name": "MintToZeroAddress",
      "type": "error"
    },
    {
      "inputs": [],
      "name": "MintZeroQuantity",
      "type": "error"
    },
    {
      "inputs": [],
      "name": "MintedQueryForZeroAddress",
      "type": "error"
    },
    {
      "inputs": [],
      "name": "OwnerIndexOutOfBounds",
      "type": "error"
    },
    {
      "inputs": [],
      "name": "OwnerQueryForNonexistentToken",
      "type": "error"
    },
    {
      "inputs": [],
      "name": "TokenIndexOutOfBounds",
      "type": "error"
    },
    {
      "inputs": [],
      "name": "TransferCallerNotOwnerNorApproved",
      "type": "error"
    },
    {
      "inputs": [],
      "name": "TransferFromIncorrectOwner",
      "type": "error"
    },
    {
      "inputs": [],
      "name": "TransferToNonERC721ReceiverImplementer",
      "type": "error"
    },
    {
      "inputs": [],
      "name": "TransferToZeroAddress",
      "type": "error"
    },
    {
      "inputs": [],
      "name": "URIQueryForNonexistentToken",
      "type": "error"
    },
    {
      "anonymous": false,
      "inputs": [
        {
          "indexed": true,
          "internalType": "address",
          "name": "owner",
          "type": "address"
        },
        {
          "indexed": true,
          "internalType": "address",
          "name": "approved",
          "type": "address"
        },
        {
          "indexed": true,
          "internalType": "uint256",
          "name": "tokenId",
          "type": "uint256"
        }
      ],
      "name": "Approval",
      "type": "event"
    },
    {
      "anonymous": false,
      "inputs": [
        {
          "indexed": true,
          "internalType": "address",
          "name": "owner",
          "type": "address"
        },
        {
          "indexed": true,
          "internalType": "address",
          "name": "operator",
          "type": "address"
        },
        {
          "indexed": false,
          "internalType": "bool",
          "name": "approved",
          "type": "bool"
        }
      ],
      "name": "ApprovalForAll",
      "type": "event"
    },
    {
      "anonymous": false,
      "inputs": [
        {
          "indexed": false,
          "internalType": "string",
          "name": "newBaseURI",
          "type": "string"
        }
      ],
      "name": "BaseURIChanged",
      "type": "event"
    },
    {
      "anonymous": false,
      "inputs": [
        {
          "indexed": false,
          "internalType": "address",
          "name": "minter",
          "type": "address"
        },
        {
          "indexed": false,
          "internalType": "uint256",
          "name": "amount",
          "type": "uint256"
        }
      ],
      "name": "Minted",
      "type": "event"
    },
    {
      "anonymous": false,
      "inputs": [
        {
          "indexed": true,
          "internalType": "address",
          "name": "previousOwner",
          "type": "address"
        },
        {
          "indexed": true,
          "internalType": "address",
          "name": "newOwner",
          "type": "address"
        }
      ],
      "name": "OwnershipTransferred",
      "type": "event"
    },
    {
      "anonymous": false,
      "inputs": [
        {
          "indexed": false,
          "internalType": "enum LHHS.Status",
          "name": "status",
          "type": "uint8"
        }
      ],
      "name": "StatusChanged",
      "type": "event"
    },
    {
      "anonymous": false,
      "inputs": [
        {
          "indexed": true,
          "internalType": "address",
          "name": "from",
          "type": "address"
        },
        {
          "indexed": true,
          "internalType": "address",
          "name": "to",
          "type": "address"
        },
        {
          "indexed": true,
          "internalType": "uint256",
          "name": "tokenId",
          "type": "uint256"
        }
      ],
      "name": "Transfer",
      "type": "event"
    },
    {
      "inputs": [],
      "name": "MAX_MINT_PER_ADDR",
      "outputs": [
        {
          "internalType": "uint256",
          "name": "",
          "type": "uint256"
        }
      ],
      "stateMutability": "view",
      "type": "function"
    },
    {
      "inputs": [],
      "name": "MAX_SUPPLY",
      "outputs": [
        {
          "internalType": "uint256",
          "name": "",
          "type": "uint256"
        }
      ],
      "stateMutability": "view",
      "type": "function"
    },
    {
      "inputs": [],
      "name": "PRICE",
      "outputs": [
        {
          "internalType": "uint256",
          "name": "",
          "type": "uint256"
        }
      ],
      "stateMutability": "view",
      "type": "function"
    },
    {
      "inputs": [
        {
          "internalType": "address",
          "name": "to",
          "type": "address"
        },
        {
          "internalType": "uint256",
          "name": "tokenId",
          "type": "uint256"
        }
      ],
      "name": "approve",
      "outputs": [],
      "stateMutability": "nonpayable",
      "type": "function"
    },
    {
      "inputs": [
        {
          "internalType": "address",
          "name": "owner",
          "type": "address"
        }
      ],
      "name": "balanceOf",
      "outputs": [
        {
          "internalType": "uint256",
          "name": "",
          "type": "uint256"
        }
      ],
      "stateMutability": "view",
      "type": "function"
    },
    {
      "inputs": [],
      "name": "baseURI",
      "outputs": [
        {
          "internalType": "string",
          "name": "",
          "type": "string"
        }
      ],
      "stateMutability": "view",
      "type": "function"
    },
    {
      "inputs": [
        {
          "internalType": "uint256",
          "name": "tokenId",
          "type": "uint256"
        }
      ],
      "name": "getApproved",
      "outputs": [
        {
          "internalType": "address",
          "name": "",
          "type": "address"
        }
      ],
      "stateMutability": "view",
      "type": "function"
    },
    {
      "inputs": [
        {
          "internalType": "address",
          "name": "owner",
          "type": "address"
        },
        {
          "internalType": "address",
          "name": "operator",
          "type": "address"
        }
      ],
      "name": "isApprovedForAll",
      "outputs": [
        {
          "internalType": "bool",
          "name": "",
          "type": "bool"
        }
      ],
      "stateMutability": "view",
      "type": "function"
    },
    {
      "inputs": [
        {
          "internalType": "uint256",
          "name": "quantity",
          "type": "uint256"
        }
      ],
      "name": "mint",
      "outputs": [],
      "stateMutability": "payable",
      "type": "function"
    },
    {
      "inputs": [],
      "name": "name",
      "outputs": [
        {
          "internalType": "string",
          "name": "",
          "type": "string"
        }
      ],
      "stateMutability": "view",
      "type": "function"
    },
    {
      "inputs": [
        {
          "internalType": "address",
          "name": "owner",
          "type": "address"
        }
      ],
      "name": "numberMinted",
      "outputs": [
        {
          "internalType": "uint256",
          "name": "",
          "type": "uint256"
        }
      ],
      "stateMutability": "view",
      "type": "function"
    },
    {
      "inputs": [],
      "name": "owner",
      "outputs": [
        {
          "internalType": "address",
          "name": "",
          "type": "address"
        }
      ],
      "stateMutability": "view",
      "type": "function"
    },
    {
      "inputs": [
        {
          "internalType": "uint256",
          "name": "tokenId",
          "type": "uint256"
        }
      ],
      "name": "ownerOf",
      "outputs": [
        {
          "internalType": "address",
          "name": "",
          "type": "address"
        }
      ],
      "stateMutability": "view",
      "type": "function"
    },
    {
      "inputs": [],
      "name": "renounceOwnership",
      "outputs": [],
      "stateMutability": "nonpayable",
      "type": "function"
    },
    {
      "inputs": [
        {
          "internalType": "address",
          "name": "from",
          "type": "address"
        },
        {
          "internalType": "address",
          "name": "to",
          "type": "address"
        },
        {
          "internalType": "uint256",
          "name": "tokenId",
          "type": "uint256"
        }
      ],
      "name": "safeTransferFrom",
      "outputs": [],
      "stateMutability": "nonpayable",
      "type": "function"
    },
    {
      "inputs": [
        {
          "internalType": "address",
          "name": "from",
          "type": "address"
        },
        {
          "internalType": "address",
          "name": "to",
          "type": "address"
        },
        {
          "internalType": "uint256",
          "name": "tokenId",
          "type": "uint256"
        },
        {
          "internalType": "bytes",
          "name": "_data",
          "type": "bytes"
        }
      ],
      "name": "safeTransferFrom",
      "outputs": [],
      "stateMutability": "nonpayable",
      "type": "function"
    },
    {
      "inputs": [
        {
          "internalType": "address",
          "name": "operator",
          "type": "address"
        },
        {
          "internalType": "bool",
          "name": "approved",
          "type": "bool"
        }
      ],
      "name": "setApprovalForAll",
      "outputs": [],
      "stateMutability": "nonpayable",
      "type": "function"
    },
    {
      "inputs": [
        {
          "internalType": "string",
          "name": "newBaseURI",
          "type": "string"
        }
      ],
      "name": "setBaseURI",
      "outputs": [],
      "stateMutability": "nonpayable",
      "type": "function"
    },
    {
      "inputs": [
        {
          "internalType": "enum LHHS.Status",
          "name": "_status",
          "type": "uint8"
        }
      ],
      "name": "setStatus",
      "outputs": [],
      "stateMutability": "nonpayable",
      "type": "function"
    },
    {
      "inputs": [],
      "name": "status",
      "outputs": [
        {
          "internalType": "enum LHHS.Status",
          "name": "",
          "type": "uint8"
        }
      ],
      "stateMutability": "view",
      "type": "function"
    },
    {
      "inputs": [
        {
          "internalType": "bytes4",
          "name": "interfaceId",
          "type": "bytes4"
        }
      ],
      "name": "supportsInterface",
      "outputs": [
        {
          "internalType": "bool",
          "name": "",
          "type": "bool"
        }
      ],
      "stateMutability": "view",
      "type": "function"
    },
    {
      "inputs": [],
      "name": "symbol",
      "outputs": [
        {
          "internalType": "string",
          "name": "",
          "type": "string"
        }
      ],
      "stateMutability": "view",
      "type": "function"
    },
    {
      "inputs": [
        {
          "internalType": "uint256",
          "name": "index",
          "type": "uint256"
        }
      ],
      "name": "tokenByIndex",
      "outputs": [
        {
          "internalType": "uint256",
          "name": "",
          "type": "uint256"
        }
      ],
      "stateMutability": "view",
      "type": "function"
    },
    {
      "inputs": [
        {
          "internalType": "address",
          "name": "owner",
          "type": "address"
        },
        {
          "internalType": "uint256",
          "name": "index",
          "type": "uint256"
        }
      ],
      "name": "tokenOfOwnerByIndex",
      "outputs": [
        {
          "internalType": "uint256",
          "name": "",
          "type": "uint256"
        }
      ],
      "stateMutability": "view",
      "type": "function"
    },
    {
      "inputs": [
        {
          "internalType": "uint256",
          "name": "tokenId",
          "type": "uint256"
        }
      ],
      "name": "tokenURI",
      "outputs": [
        {
          "internalType": "string",
          "name": "",
          "type": "string"
        }
      ],
      "stateMutability": "view",
      "type": "function"
    },
    {
      "inputs": [],
      "name": "totalSupply",
      "outputs": [
        {
          "internalType": "uint256",
          "name": "",
          "type": "uint256"
        }
      ],
      "stateMutability": "view",
      "type": "function"
    },
    {
      "inputs": [
        {
          "internalType": "address",
          "name": "from",
          "type": "address"
        },
        {
          "internalType": "address",
          "name": "to",
          "type": "address"
        },
        {
          "internalType": "uint256",
          "name": "tokenId",
          "type": "uint256"
        }
      ],
      "name": "transferFrom",
      "outputs": [],
      "stateMutability": "nonpayable",
      "type": "function"
    },
    {
      "inputs": [
        {
          "internalType": "address",
          "name": "newOwner",
          "type": "address"
        }
      ],
      "name": "transferOwnership",
      "outputs": [],
      "stateMutability": "nonpayable",
      "type": "function"
    },
    {
      "inputs": [
        {
          "internalType": "address payable",
          "name": "recipient",
          "type": "address"
        }
      ],
      "name": "withdraw",
      "outputs": [],
      "stateMutability": "nonpayable",
      "type": "function"
    }
  ],
  "bytecode": "0x60806040523480156200001157600080fd5b506040516200433138038062004331833981810160405281019062000037919062000307565b6040518060400160405280600781526020017f4c4848534e4654000000000000000000000000000000000000000000000000008152506040518060400160405280600481526020017f4c484853000000000000000000000000000000000000000000000000000000008152508160019080519060200190620000bb929190620001e5565b508060029080519060200190620000d4929190620001e5565b505050620000f7620000eb6200011760201b60201c565b6200011f60201b60201c565b80600890805190602001906200010f929190620001e5565b5050620004bc565b600033905090565b6000600760009054906101000a900473ffffffffffffffffffffffffffffffffffffffff16905081600760006101000a81548173ffffffffffffffffffffffffffffffffffffffff021916908373ffffffffffffffffffffffffffffffffffffffff1602179055508173ffffffffffffffffffffffffffffffffffffffff168173ffffffffffffffffffffffffffffffffffffffff167f8be0079c531659141344cd1fd0a4f28419497f9722a3daafe3b4186f6b6457e060405160405180910390a35050565b828054620001f390620003e1565b90600052602060002090601f01602090048101928262000217576000855562000263565b82601f106200023257805160ff191683800117855562000263565b8280016001018555821562000263579182015b828111156200026257825182559160200191906001019062000245565b5b50905062000272919062000276565b5090565b5b808211156200029157600081600090555060010162000277565b5090565b6000620002ac620002a68462000375565b6200034c565b905082815260208101848484011115620002c557600080fd5b620002d2848285620003ab565b509392505050565b600082601f830112620002ec57600080fd5b8151620002fe84826020860162000295565b91505092915050565b6000602082840312156200031a57600080fd5b600082015167ffffffffffffffff8111156200033557600080fd5b6200034384828501620002da565b91505092915050565b6000620003586200036b565b905062000366828262000417565b919050565b6000604051905090565b600067ffffffffffffffff8211156200039357620003926200047c565b5b6200039e82620004ab565b9050602081019050919050565b60005b83811015620003cb578082015181840152602081019050620003ae565b83811115620003db576000848401525b50505050565b60006002820490506001821680620003fa57607f821691505b602082108114156200041157620004106200044d565b5b50919050565b6200042282620004ab565b810181811067ffffffffffffffff821117156200044457620004436200047c565b5b80604052505050565b7f4e487b7100000000000000000000000000000000000000000000000000000000600052602260045260246000fd5b7f4e487b7100000000000000000000000000000000000000000000000000000000600052604160045260246000fd5b6000601f19601f8301169050919050565b613e6580620004cc6000396000f3fe6080604052600436106101c25760003560e01c806355f804b3116100f757806395d89b4111610095578063c87b56dd11610064578063c87b56dd14610633578063dc33e68114610670578063e985e9c5146106ad578063f2fde38b146106ea576101c2565b806395d89b411461059a578063a0712d68146105c5578063a22cb465146105e1578063b88d4fde1461060a576101c2565b806370a08231116100d157806370a08231146104f0578063715018a61461052d5780638d859f3e146105445780638da5cb5b1461056f576101c2565b806355f804b31461045f5780636352211e146104885780636c0360eb146104c5576101c2565b806323b872dd1161016457806332cb6b0c1161013e57806332cb6b0c146103a557806342842e0e146103d05780634f6ccce7146103f957806351cff8d914610436576101c2565b806323b872dd146103165780632e49d78b1461033f5780632f745c5914610368576101c2565b8063095ea7b3116101a0578063095ea7b31461026c578063161548621461029557806318160ddd146102c0578063200d2ed2146102eb576101c2565b806301ffc9a7146101c757806306fdde0314610204578063081812fc1461022f575b600080fd5b3480156101d357600080fd5b506101ee60048036038101906101e991906131f2565b610713565b6040516101fb91906135eb565b60405180910390f35b34801561021057600080fd5b5061021961085d565b6040516102269190613645565b60405180910390f35b34801561023b57600080fd5b50610256600480360381019061025191906132b2565b6108ef565b604051610263919061355b565b60405180910390f35b34801561027857600080fd5b50610293600480360381019061028e91906131b6565b61096b565b005b3480156102a157600080fd5b506102aa610a76565b6040516102b79190613767565b60405180910390f35b3480156102cc57600080fd5b506102d5610a7b565b6040516102e29190613767565b60405180910390f35b3480156102f757600080fd5b50610300610ad0565b60405161030d9190613606565b60405180910390f35b34801561032257600080fd5b5061033d600480360381019061033891906130b0565b610ae3565b005b34801561034b57600080fd5b5061036660048036038101906103619190613244565b610af3565b005b34801561037457600080fd5b5061038f600480360381019061038a91906131b6565b610c08565b60405161039c9190613767565b60405180910390f35b3480156103b157600080fd5b506103ba610e0f565b6040516103c79190613767565b60405180910390f35b3480156103dc57600080fd5b506103f760048036038101906103f291906130b0565b610e15565b005b34801561040557600080fd5b50610420600480360381019061041b91906132b2565b610e35565b60405161042d9190613767565b60405180910390f35b34801561044257600080fd5b5061045d6004803603810190610458919061304b565b610fa6565b005b34801561046b57600080fd5b506104866004803603810190610481919061326d565b6110d8565b005b34801561049457600080fd5b506104af60048036038101906104aa91906132b2565b6111a3565b6040516104bc919061355b565b60405180910390f35b3480156104d157600080fd5b506104da6111b9565b6040516104e79190613645565b60405180910390f35b3480156104fc57600080fd5b5061051760048036038101906105129190613022565b611247565b6040516105249190613767565b60405180910390f35b34801561053957600080fd5b50610542611317565b005b34801561055057600080fd5b5061055961139f565b6040516105669190613767565b60405180910390f35b34801561057b57600080fd5b506105846113aa565b604051610591919061355b565b60405180910390f35b3480156105a657600080fd5b506105af6113d4565b6040516105bc9190613645565b60405180910390f35b6105df60048036038101906105da91906132b2565b611466565b005b3480156105ed57600080fd5b506106086004803603810190610603919061317a565b6116a5565b005b34801561061657600080fd5b50610631600480360381019061062c91906130ff565b61181d565b005b34801561063f57600080fd5b5061065a600480360381019061065591906132b2565b611870565b6040516106679190613645565b60405180910390f35b34801561067c57600080fd5b5061069760048036038101906106929190613022565b61190f565b6040516106a49190613767565b60405180910390f35b3480156106b957600080fd5b506106d460048036038101906106cf9190613074565b611921565b6040516106e191906135eb565b60405180910390f35b3480156106f657600080fd5b50610711600480360381019061070c9190613022565b6119b5565b005b60007f80ac58cd000000000000000000000000000000000000000000000000000000007bffffffffffffffffffffffffffffffffffffffffffffffffffffffff1916827bffffffffffffffffffffffffffffffffffffffffffffffffffffffff191614806107de57507f5b5e139f000000000000000000000000000000000000000000000000000000007bffffffffffffffffffffffffffffffffffffffffffffffffffffffff1916827bffffffffffffffffffffffffffffffffffffffffffffffffffffffff1916145b8061084657507f780e9d63000000000000000000000000000000000000000000000000000000007bffffffffffffffffffffffffffffffffffffffffffffffffffffffff1916827bffffffffffffffffffffffffffffffffffffffffffffffffffffffff1916145b80610856575061085582611aad565b5b9050919050565b60606001805461086c90613a28565b80601f016020809104026020016040519081016040528092919081815260200182805461089890613a28565b80156108e55780601f106108ba576101008083540402835291602001916108e5565b820191906000526020600020905b8154815290600101906020018083116108c857829003601f168201915b5050505050905090565b60006108fa82611b17565b610930576040517fcf4700e400000000000000000000000000000000000000000000000000000000815260040160405180910390fd5b6005600083815260200190815260200160002060009054906101000a900473ffffffffffffffffffffffffffffffffffffffff169050919050565b6000610976826111a3565b90508073ffffffffffffffffffffffffffffffffffffffff168373ffffffffffffffffffffffffffffffffffffffff1614156109de576040517f943f7b8c00000000000000000000000000000000000000000000000000000000815260040160405180910390fd5b8073ffffffffffffffffffffffffffffffffffffffff166109fd611b7f565b73ffffffffffffffffffffffffffffffffffffffff1614158015610a2f5750610a2d81610a28611b7f565b611921565b155b15610a66576040517fcfb3b94200000000000000000000000000000000000000000000000000000000815260040160405180910390fd5b610a71838383611b87565b505050565b600281565b60008060109054906101000a90046fffffffffffffffffffffffffffffffff1660008054906101000a90046fffffffffffffffffffffffffffffffff16036fffffffffffffffffffffffffffffffff16905090565b600760149054906101000a900460ff1681565b610aee838383611c39565b505050565b610afb611b7f565b73ffffffffffffffffffffffffffffffffffffffff16610b196113aa565b73ffffffffffffffffffffffffffffffffffffffff1614610b6f576040517f08c379a0000000000000000000000000000000000000000000000000000000008152600401610b66906136c7565b60405180910390fd5b80600760146101000a81548160ff02191690836002811115610bba577f4e487b7100000000000000000000000000000000000000000000000000000000600052602160045260246000fd5b02179055507fafa725e7f44cadb687a7043853fa1a7e7b8f0da74ce87ec546e9420f04da8c1e600760149054906101000a900460ff16604051610bfd9190613606565b60405180910390a150565b6000610c1383611247565b8210610c4b576040517f0ddac30e00000000000000000000000000000000000000000000000000000000815260040160405180910390fd5b60008060009054906101000a90046fffffffffffffffffffffffffffffffff166fffffffffffffffffffffffffffffffff16905060008060005b83811015610e03576000600360008381526020019081526020016000206040518060600160405290816000820160009054906101000a900473ffffffffffffffffffffffffffffffffffffffff1673ffffffffffffffffffffffffffffffffffffffff1673ffffffffffffffffffffffffffffffffffffffff1681526020016000820160149054906101000a900467ffffffffffffffff1667ffffffffffffffff1667ffffffffffffffff16815260200160008201601c9054906101000a900460ff1615151515815250509050806040015115610d625750610df6565b600073ffffffffffffffffffffffffffffffffffffffff16816000015173ffffffffffffffffffffffffffffffffffffffff1614610da257806000015192505b8773ffffffffffffffffffffffffffffffffffffffff168373ffffffffffffffffffffffffffffffffffffffff161415610df45786841415610deb578195505050505050610e09565b83806001019450505b505b8080600101915050610c85565b50600080fd5b92915050565b611a0a81565b610e308383836040518060200160405280600081525061181d565b505050565b60008060008054906101000a90046fffffffffffffffffffffffffffffffff166fffffffffffffffffffffffffffffffff1690506000805b82811015610f6e576000600360008381526020019081526020016000206040518060600160405290816000820160009054906101000a900473ffffffffffffffffffffffffffffffffffffffff1673ffffffffffffffffffffffffffffffffffffffff1673ffffffffffffffffffffffffffffffffffffffff1681526020016000820160149054906101000a900467ffffffffffffffff1667ffffffffffffffff1667ffffffffffffffff16815260200160008201601c9054906101000a900460ff16151515158152505090508060400151610f605785831415610f575781945050505050610fa1565b82806001019350505b508080600101915050610e6d565b506040517fa723001c00000000000000000000000000000000000000000000000000000000815260040160405180910390fd5b919050565b610fae611b7f565b73ffffffffffffffffffffffffffffffffffffffff16610fcc6113aa565b73ffffffffffffffffffffffffffffffffffffffff1614611022576040517f08c379a0000000000000000000000000000000000000000000000000000000008152600401611019906136c7565b60405180910390fd5b600047905060008273ffffffffffffffffffffffffffffffffffffffff168260405161104d90613546565b60006040518083038185875af1925050503d806000811461108a576040519150601f19603f3d011682016040523d82523d6000602084013e61108f565b606091505b50509050806110d3576040517f08c379a00000000000000000000000000000000000000000000000000000000081526004016110ca906136a7565b60405180910390fd5b505050565b6110e0611b7f565b73ffffffffffffffffffffffffffffffffffffffff166110fe6113aa565b73ffffffffffffffffffffffffffffffffffffffff1614611154576040517f08c379a000000000000000000000000000000000000000000000000000000000815260040161114b906136c7565b60405180910390fd5b818160089190611165929190612df7565b507f5411e8ebf1636d9e83d5fc4900bf80cbac82e8790da2a4c94db4895e889eedf68282604051611197929190613621565b60405180910390a15050565b60006111ae82612156565b600001519050919050565b600880546111c690613a28565b80601f01602080910402602001604051908101604052809291908181526020018280546111f290613a28565b801561123f5780601f106112145761010080835404028352916020019161123f565b820191906000526020600020905b81548152906001019060200180831161122257829003601f168201915b505050505081565b60008073ffffffffffffffffffffffffffffffffffffffff168273ffffffffffffffffffffffffffffffffffffffff1614156112af576040517f8f4eb60400000000000000000000000000000000000000000000000000000000815260040160405180910390fd5b600460008373ffffffffffffffffffffffffffffffffffffffff1673ffffffffffffffffffffffffffffffffffffffff16815260200190815260200160002060000160009054906101000a900467ffffffffffffffff1667ffffffffffffffff169050919050565b61131f611b7f565b73ffffffffffffffffffffffffffffffffffffffff1661133d6113aa565b73ffffffffffffffffffffffffffffffffffffffff1614611393576040517f08c379a000000000000000000000000000000000000000000000000000000000815260040161138a906136c7565b60405180910390fd5b61139d60006123fe565b565b661772aa3f84800081565b6000600760009054906101000a900473ffffffffffffffffffffffffffffffffffffffff16905090565b6060600280546113e390613a28565b80601f016020809104026020016040519081016040528092919081815260200182805461140f90613a28565b801561145c5780601f106114315761010080835404028352916020019161145c565b820191906000526020600020905b81548152906001019060200180831161143f57829003601f168201915b5050505050905090565b600160028111156114a0577f4e487b7100000000000000000000000000000000000000000000000000000000600052602160045260246000fd5b600760149054906101000a900460ff1660028111156114e8577f4e487b7100000000000000000000000000000000000000000000000000000000600052602160045260246000fd5b14611528576040517f08c379a000000000000000000000000000000000000000000000000000000000815260040161151f90613747565b60405180910390fd5b3373ffffffffffffffffffffffffffffffffffffffff163273ffffffffffffffffffffffffffffffffffffffff1614611596576040517f08c379a000000000000000000000000000000000000000000000000000000000815260040161158d90613687565b60405180910390fd5b6002816115a23361190f565b6115ac9190613826565b11156115ed576040517f08c379a00000000000000000000000000000000000000000000000000000000081526004016115e4906136e7565b60405180910390fd5b611a0a816115f9610a7b565b6116039190613826565b1115611644576040517f08c379a000000000000000000000000000000000000000000000000000000000815260040161163b90613707565b60405180910390fd5b61164e33826124c4565b61166981661772aa3f84800061166491906138ad565b6124e2565b7f30385c845b448a36257a6a1716e6ad2e1bc2cbe333cde1e69fe849ad6511adfe338260405161169a9291906135c2565b60405180910390a150565b6116ad611b7f565b73ffffffffffffffffffffffffffffffffffffffff168273ffffffffffffffffffffffffffffffffffffffff161415611712576040517fb06307db00000000000000000000000000000000000000000000000000000000815260040160405180910390fd5b806006600061171f611b7f565b73ffffffffffffffffffffffffffffffffffffffff1673ffffffffffffffffffffffffffffffffffffffff16815260200190815260200160002060008473ffffffffffffffffffffffffffffffffffffffff1673ffffffffffffffffffffffffffffffffffffffff16815260200190815260200160002060006101000a81548160ff0219169083151502179055508173ffffffffffffffffffffffffffffffffffffffff166117cc611b7f565b73ffffffffffffffffffffffffffffffffffffffff167f17307eab39ab6107e8899845ad3d59bd9653f200f220920489ca2b5937696c318360405161181191906135eb565b60405180910390a35050565b611828848484611c39565b61183484848484612583565b61186a576040517fd1a57ed600000000000000000000000000000000000000000000000000000000815260040160405180910390fd5b50505050565b606061187b82611b17565b6118b1576040517fa14c4b5000000000000000000000000000000000000000000000000000000000815260040160405180910390fd5b60006118bb612711565b90506000815114156118dc5760405180602001604052806000815250611907565b806118e6846127a3565b6040516020016118f7929190613522565b6040516020818303038152906040525b915050919050565b600061191a82612950565b9050919050565b6000600660008473ffffffffffffffffffffffffffffffffffffffff1673ffffffffffffffffffffffffffffffffffffffff16815260200190815260200160002060008373ffffffffffffffffffffffffffffffffffffffff1673ffffffffffffffffffffffffffffffffffffffff16815260200190815260200160002060009054906101000a900460ff16905092915050565b6119bd611b7f565b73ffffffffffffffffffffffffffffffffffffffff166119db6113aa565b73ffffffffffffffffffffffffffffffffffffffff1614611a31576040517f08c379a0000000000000000000000000000000000000000000000000000000008152600401611a28906136c7565b60405180910390fd5b600073ffffffffffffffffffffffffffffffffffffffff168173ffffffffffffffffffffffffffffffffffffffff161415611aa1576040517f08c379a0000000000000000000000000000000000000000000000000000000008152600401611a9890613667565b60405180910390fd5b611aaa816123fe565b50565b60007f01ffc9a7000000000000000000000000000000000000000000000000000000007bffffffffffffffffffffffffffffffffffffffffffffffffffffffff1916827bffffffffffffffffffffffffffffffffffffffffffffffffffffffff1916149050919050565b60008060009054906101000a90046fffffffffffffffffffffffffffffffff166fffffffffffffffffffffffffffffffff1682108015611b78575060036000838152602001908152602001600020600001601c9054906101000a900460ff16155b9050919050565b600033905090565b826005600084815260200190815260200160002060006101000a81548173ffffffffffffffffffffffffffffffffffffffff021916908373ffffffffffffffffffffffffffffffffffffffff160217905550818373ffffffffffffffffffffffffffffffffffffffff168273ffffffffffffffffffffffffffffffffffffffff167f8c5be1e5ebec7d5bd14f71427d1e84f3dd0314c0f7b2291e5b200ac8c7c3b92560405160405180910390a4505050565b6000611c4482612156565b90506000816000015173ffffffffffffffffffffffffffffffffffffffff16611c6b611b7f565b73ffffffffffffffffffffffffffffffffffffffff161480611c9e5750611c9d8260000151611c98611b7f565b611921565b5b80611ce35750611cac611b7f565b73ffffffffffffffffffffffffffffffffffffffff16611ccb846108ef565b73ffffffffffffffffffffffffffffffffffffffff16145b905080611d1c576040517f59c896be00000000000000000000000000000000000000000000000000000000815260040160405180910390fd5b8473ffffffffffffffffffffffffffffffffffffffff16826000015173ffffffffffffffffffffffffffffffffffffffff1614611d85576040517fa114810000000000000000000000000000000000000000000000000000000000815260040160405180910390fd5b600073ffffffffffffffffffffffffffffffffffffffff168473ffffffffffffffffffffffffffffffffffffffff161415611dec576040517fea553b3400000000000000000000000000000000000000000000000000000000815260040160405180910390fd5b611df98585856001612a20565b611e096000848460000151611b87565b6001600460008773ffffffffffffffffffffffffffffffffffffffff1673ffffffffffffffffffffffffffffffffffffffff16815260200190815260200160002060000160008282829054906101000a900467ffffffffffffffff160392506101000a81548167ffffffffffffffff021916908367ffffffffffffffff1602179055506001600460008673ffffffffffffffffffffffffffffffffffffffff1673ffffffffffffffffffffffffffffffffffffffff16815260200190815260200160002060000160008282829054906101000a900467ffffffffffffffff160192506101000a81548167ffffffffffffffff021916908367ffffffffffffffff160217905550836003600085815260200190815260200160002060000160006101000a81548173ffffffffffffffffffffffffffffffffffffffff021916908373ffffffffffffffffffffffffffffffffffffffff160217905550426003600085815260200190815260200160002060000160146101000a81548167ffffffffffffffff021916908367ffffffffffffffff1602179055506000600184019050600073ffffffffffffffffffffffffffffffffffffffff166003600083815260200190815260200160002060000160009054906101000a900473ffffffffffffffffffffffffffffffffffffffff1673ffffffffffffffffffffffffffffffffffffffff1614156120e65760008054906101000a90046fffffffffffffffffffffffffffffffff166fffffffffffffffffffffffffffffffff168110156120e55782600001516003600083815260200190815260200160002060000160006101000a81548173ffffffffffffffffffffffffffffffffffffffff021916908373ffffffffffffffffffffffffffffffffffffffff16021790555082602001516003600083815260200190815260200160002060000160146101000a81548167ffffffffffffffff021916908367ffffffffffffffff1602179055505b5b50828473ffffffffffffffffffffffffffffffffffffffff168673ffffffffffffffffffffffffffffffffffffffff167fddf252ad1be2c89b69c2b068fc378daa952ba7f163c4a11628f55a4df523b3ef60405160405180910390a461214f8585856001612a26565b5050505050565b61215e612e7d565b600082905060008054906101000a90046fffffffffffffffffffffffffffffffff166fffffffffffffffffffffffffffffffff168110156123c7576000600360008381526020019081526020016000206040518060600160405290816000820160009054906101000a900473ffffffffffffffffffffffffffffffffffffffff1673ffffffffffffffffffffffffffffffffffffffff1673ffffffffffffffffffffffffffffffffffffffff1681526020016000820160149054906101000a900467ffffffffffffffff1667ffffffffffffffff1667ffffffffffffffff16815260200160008201601c9054906101000a900460ff161515151581525050905080604001516123c557600073ffffffffffffffffffffffffffffffffffffffff16816000015173ffffffffffffffffffffffffffffffffffffffff16146122a95780925050506123f9565b5b6001156123c457818060019003925050600360008381526020019081526020016000206040518060600160405290816000820160009054906101000a900473ffffffffffffffffffffffffffffffffffffffff1673ffffffffffffffffffffffffffffffffffffffff1673ffffffffffffffffffffffffffffffffffffffff1681526020016000820160149054906101000a900467ffffffffffffffff1667ffffffffffffffff1667ffffffffffffffff16815260200160008201601c9054906101000a900460ff1615151515815250509050600073ffffffffffffffffffffffffffffffffffffffff16816000015173ffffffffffffffffffffffffffffffffffffffff16146123bf5780925050506123f9565b6122aa565b5b505b6040517fdf2d9b4200000000000000000000000000000000000000000000000000000000815260040160405180910390fd5b919050565b6000600760009054906101000a900473ffffffffffffffffffffffffffffffffffffffff16905081600760006101000a81548173ffffffffffffffffffffffffffffffffffffffff021916908373ffffffffffffffffffffffffffffffffffffffff1602179055508173ffffffffffffffffffffffffffffffffffffffff168173ffffffffffffffffffffffffffffffffffffffff167f8be0079c531659141344cd1fd0a4f28419497f9722a3daafe3b4186f6b6457e060405160405180910390a35050565b6124de828260405180602001604052806000815250612a2c565b5050565b80341015612525576040517f08c379a000000000000000000000000000000000000000000000000000000000815260040161251c90613727565b60405180910390fd5b80341115612580573373ffffffffffffffffffffffffffffffffffffffff166108fc82346125539190613907565b9081150290604051600060405180830381858888f1935050505015801561257e573d6000803e3d6000fd5b505b50565b60006125a48473ffffffffffffffffffffffffffffffffffffffff16612a3e565b15612704578373ffffffffffffffffffffffffffffffffffffffff1663150b7a026125cd611b7f565b8786866040518563ffffffff1660e01b81526004016125ef9493929190613576565b602060405180830381600087803b15801561260957600080fd5b505af192505050801561263a57506040513d601f19601f82011682018060405250810190612637919061321b565b60015b6126b4573d806000811461266a576040519150601f19603f3d011682016040523d82523d6000602084013e61266f565b606091505b506000815114156126ac576040517fd1a57ed600000000000000000000000000000000000000000000000000000000815260040160405180910390fd5b805181602001fd5b63150b7a0260e01b7bffffffffffffffffffffffffffffffffffffffffffffffffffffffff1916817bffffffffffffffffffffffffffffffffffffffffffffffffffffffff191614915050612709565b600190505b949350505050565b60606008805461272090613a28565b80601f016020809104026020016040519081016040528092919081815260200182805461274c90613a28565b80156127995780601f1061276e57610100808354040283529160200191612799565b820191906000526020600020905b81548152906001019060200180831161277c57829003601f168201915b5050505050905090565b606060008214156127eb576040518060400160405280600181526020017f3000000000000000000000000000000000000000000000000000000000000000815250905061294b565b600082905060005b6000821461281d57808061280690613a8b565b915050600a82612816919061387c565b91506127f3565b60008167ffffffffffffffff81111561285f577f4e487b7100000000000000000000000000000000000000000000000000000000600052604160045260246000fd5b6040519080825280601f01601f1916602001820160405280156128915781602001600182028036833780820191505090505b5090505b60008514612944576001826128aa9190613907565b9150600a856128b99190613ad4565b60306128c59190613826565b60f81b818381518110612901577f4e487b7100000000000000000000000000000000000000000000000000000000600052603260045260246000fd5b60200101907effffffffffffffffffffffffffffffffffffffffffffffffffffffffffffff1916908160001a905350600a8561293d919061387c565b9450612895565b8093505050505b919050565b60008073ffffffffffffffffffffffffffffffffffffffff168273ffffffffffffffffffffffffffffffffffffffff1614156129b8576040517f35ebb31900000000000000000000000000000000000000000000000000000000815260040160405180910390fd5b600460008373ffffffffffffffffffffffffffffffffffffffff1673ffffffffffffffffffffffffffffffffffffffff16815260200190815260200160002060000160089054906101000a900467ffffffffffffffff1667ffffffffffffffff169050919050565b50505050565b50505050565b612a398383836001612a61565b505050565b6000808273ffffffffffffffffffffffffffffffffffffffff163b119050919050565b60008060009054906101000a90046fffffffffffffffffffffffffffffffff166fffffffffffffffffffffffffffffffff169050600073ffffffffffffffffffffffffffffffffffffffff168573ffffffffffffffffffffffffffffffffffffffff161415612afc576040517f2e07630000000000000000000000000000000000000000000000000000000000815260040160405180910390fd5b6000841415612b37576040517fb562e8dd00000000000000000000000000000000000000000000000000000000815260040160405180910390fd5b612b446000868387612a20565b83600460008773ffffffffffffffffffffffffffffffffffffffff1673ffffffffffffffffffffffffffffffffffffffff16815260200190815260200160002060000160008282829054906101000a900467ffffffffffffffff160192506101000a81548167ffffffffffffffff021916908367ffffffffffffffff16021790555083600460008773ffffffffffffffffffffffffffffffffffffffff1673ffffffffffffffffffffffffffffffffffffffff16815260200190815260200160002060000160088282829054906101000a900467ffffffffffffffff160192506101000a81548167ffffffffffffffff021916908367ffffffffffffffff160217905550846003600083815260200190815260200160002060000160006101000a81548173ffffffffffffffffffffffffffffffffffffffff021916908373ffffffffffffffffffffffffffffffffffffffff160217905550426003600083815260200190815260200160002060000160146101000a81548167ffffffffffffffff021916908367ffffffffffffffff160217905550600081905060005b85811015612da957818773ffffffffffffffffffffffffffffffffffffffff16600073ffffffffffffffffffffffffffffffffffffffff167fddf252ad1be2c89b69c2b068fc378daa952ba7f163c4a11628f55a4df523b3ef60405160405180910390a4838015612d5d5750612d5b6000888488612583565b155b15612d94576040517fd1a57ed600000000000000000000000000000000000000000000000000000000815260040160405180910390fd5b81806001019250508080600101915050612ce2565b50806000806101000a8154816fffffffffffffffffffffffffffffffff02191690836fffffffffffffffffffffffffffffffff16021790555050612df06000868387612a26565b5050505050565b828054612e0390613a28565b90600052602060002090601f016020900481019282612e255760008555612e6c565b82601f10612e3e57803560ff1916838001178555612e6c565b82800160010185558215612e6c579182015b82811115612e6b578235825591602001919060010190612e50565b5b509050612e799190612ec0565b5090565b6040518060600160405280600073ffffffffffffffffffffffffffffffffffffffff168152602001600067ffffffffffffffff1681526020016000151581525090565b5b80821115612ed9576000816000905550600101612ec1565b5090565b6000612ef0612eeb846137a7565b613782565b905082815260208101848484011115612f0857600080fd5b612f138482856139e6565b509392505050565b600081359050612f2a81613dac565b92915050565b600081359050612f3f81613dc3565b92915050565b600081359050612f5481613dda565b92915050565b600081359050612f6981613df1565b92915050565b600081519050612f7e81613df1565b92915050565b600082601f830112612f9557600080fd5b8135612fa5848260208601612edd565b91505092915050565b600081359050612fbd81613e08565b92915050565b60008083601f840112612fd557600080fd5b8235905067ffffffffffffffff811115612fee57600080fd5b60208301915083600182028301111561300657600080fd5b9250929050565b60008135905061301c81613e18565b92915050565b60006020828403121561303457600080fd5b600061304284828501612f1b565b91505092915050565b60006020828403121561305d57600080fd5b600061306b84828501612f30565b91505092915050565b6000806040838503121561308757600080fd5b600061309585828601612f1b565b92505060206130a685828601612f1b565b9150509250929050565b6000806000606084860312156130c557600080fd5b60006130d386828701612f1b565b93505060206130e486828701612f1b565b92505060406130f58682870161300d565b9150509250925092565b6000806000806080858703121561311557600080fd5b600061312387828801612f1b565b945050602061313487828801612f1b565b93505060406131458782880161300d565b925050606085013567ffffffffffffffff81111561316257600080fd5b61316e87828801612f84565b91505092959194509250565b6000806040838503121561318d57600080fd5b600061319b85828601612f1b565b92505060206131ac85828601612f45565b9150509250929050565b600080604083850312156131c957600080fd5b60006131d785828601612f1b565b92505060206131e88582860161300d565b9150509250929050565b60006020828403121561320457600080fd5b600061321284828501612f5a565b91505092915050565b60006020828403121561322d57600080fd5b600061323b84828501612f6f565b91505092915050565b60006020828403121561325657600080fd5b600061326484828501612fae565b91505092915050565b6000806020838503121561328057600080fd5b600083013567ffffffffffffffff81111561329a57600080fd5b6132a685828601612fc3565b92509250509250929050565b6000602082840312156132c457600080fd5b60006132d28482850161300d565b91505092915050565b6132e48161393b565b82525050565b6132f38161395f565b82525050565b6000613304826137d8565b61330e81856137ee565b935061331e8185602086016139f5565b61332781613bf0565b840191505092915050565b61333b816139d4565b82525050565b600061334d838561380a565b935061335a8385846139e6565b61336383613bf0565b840190509392505050565b6000613379826137e3565b613383818561380a565b93506133938185602086016139f5565b61339c81613bf0565b840191505092915050565b60006133b2826137e3565b6133bc818561381b565b93506133cc8185602086016139f5565b80840191505092915050565b60006133e560268361380a565b91506133f082613c01565b604082019050919050565b600061340860218361380a565b915061341382613c50565b604082019050919050565b600061342b601a8361380a565b915061343682613c9f565b602082019050919050565b600061344e60208361380a565b915061345982613cc8565b602082019050919050565b600061347160128361380a565b915061347c82613cf1565b602082019050919050565b600061349460188361380a565b915061349f82613d1a565b602082019050919050565b60006134b76000836137ff565b91506134c282613d43565b600082019050919050565b60006134da60168361380a565b91506134e582613d46565b602082019050919050565b60006134fd60168361380a565b915061350882613d6f565b602082019050919050565b61351c816139ca565b82525050565b600061352e82856133a7565b915061353a82846133a7565b91508190509392505050565b6000613551826134aa565b9150819050919050565b600060208201905061357060008301846132db565b92915050565b600060808201905061358b60008301876132db565b61359860208301866132db565b6135a56040830185613513565b81810360608301526135b781846132f9565b905095945050505050565b60006040820190506135d760008301856132db565b6135e46020830184613513565b9392505050565b600060208201905061360060008301846132ea565b92915050565b600060208201905061361b6000830184613332565b92915050565b6000602082019050818103600083015261363c818486613341565b90509392505050565b6000602082019050818103600083015261365f818461336e565b905092915050565b60006020820190508181036000830152613680816133d8565b9050919050565b600060208201905081810360008301526136a0816133fb565b9050919050565b600060208201905081810360008301526136c08161341e565b9050919050565b600060208201905081810360008301526136e081613441565b9050919050565b6000602082019050818103600083015261370081613464565b9050919050565b6000602082019050818103600083015261372081613487565b9050919050565b60006020820190508181036000830152613740816134cd565b9050919050565b60006020820190508181036000830152613760816134f0565b9050919050565b600060208201905061377c6000830184613513565b92915050565b600061378c61379d565b90506137988282613a5a565b919050565b6000604051905090565b600067ffffffffffffffff8211156137c2576137c1613bc1565b5b6137cb82613bf0565b9050602081019050919050565b600081519050919050565b600081519050919050565b600082825260208201905092915050565b600081905092915050565b600082825260208201905092915050565b600081905092915050565b6000613831826139ca565b915061383c836139ca565b9250827fffffffffffffffffffffffffffffffffffffffffffffffffffffffffffffffff0382111561387157613870613b05565b5b828201905092915050565b6000613887826139ca565b9150613892836139ca565b9250826138a2576138a1613b34565b5b828204905092915050565b60006138b8826139ca565b91506138c3836139ca565b9250817fffffffffffffffffffffffffffffffffffffffffffffffffffffffffffffffff04831182151516156138fc576138fb613b05565b5b828202905092915050565b6000613912826139ca565b915061391d836139ca565b9250828210156139305761392f613b05565b5b828203905092915050565b6000613946826139aa565b9050919050565b6000613958826139aa565b9050919050565b60008115159050919050565b60007fffffffff0000000000000000000000000000000000000000000000000000000082169050919050565b60008190506139a582613d98565b919050565b600073ffffffffffffffffffffffffffffffffffffffff82169050919050565b6000819050919050565b60006139df82613997565b9050919050565b82818337600083830152505050565b60005b83811015613a135780820151818401526020810190506139f8565b83811115613a22576000848401525b50505050565b60006002820490506001821680613a4057607f821691505b60208210811415613a5457613a53613b92565b5b50919050565b613a6382613bf0565b810181811067ffffffffffffffff82111715613a8257613a81613bc1565b5b80604052505050565b6000613a96826139ca565b91507fffffffffffffffffffffffffffffffffffffffffffffffffffffffffffffffff821415613ac957613ac8613b05565b5b600182019050919050565b6000613adf826139ca565b9150613aea836139ca565b925082613afa57613af9613b34565b5b828206905092915050565b7f4e487b7100000000000000000000000000000000000000000000000000000000600052601160045260246000fd5b7f4e487b7100000000000000000000000000000000000000000000000000000000600052601260045260246000fd5b7f4e487b7100000000000000000000000000000000000000000000000000000000600052602160045260246000fd5b7f4e487b7100000000000000000000000000000000000000000000000000000000600052602260045260246000fd5b7f4e487b7100000000000000000000000000000000000000000000000000000000600052604160045260246000fd5b6000601f19601f8301169050919050565b7f4f776e61626c653a206e6577206f776e657220697320746865207a65726f206160008201527f6464726573730000000000000000000000000000000000000000000000000000602082015250565b7f4c4848533a2042752079756e20787520686520797565206469616f20796f6e6760008201527f2e00000000000000000000000000000000000000000000000000000000000000602082015250565b7f4c4848533a2057616e206c652c207175616e2077616e206c652e000000000000600082015250565b7f4f776e61626c653a2063616c6c6572206973206e6f7420746865206f776e6572600082015250565b7f4c4848533a205a75692064756f206c69612e0000000000000000000000000000600082015250565b7f4c4848533a204d6569207a6865206d652064756f206c652e0000000000000000600082015250565b50565b7f4c4848533a204d65692064756f20676569204554482e00000000000000000000600082015250565b7f4c4848533a20486169206d6569206b6169207368692e00000000000000000000600082015250565b60038110613da957613da8613b63565b5b50565b613db58161393b565b8114613dc057600080fd5b50565b613dcc8161394d565b8114613dd757600080fd5b50565b613de38161395f565b8114613dee57600080fd5b50565b613dfa8161396b565b8114613e0557600080fd5b50565b60038110613e1557600080fd5b50565b613e21816139ca565b8114613e2c57600080fd5b5056fea26469706673582212200b4490d1e90fd8772596d879da73cd1160b1d3b5fb96be97344a39ab9967953864736f6c63430008040033",
  "linkReferences": {},
  "deployedLinkReferences": {}
}