{
  "_format": "hh-sol-artifact-1",
  "contractName": "LHHS",
  "sourceName": "contracts/LHHS.sol",
  "abi": [
    {
      "inputs": [
        {
          "internalType": "string",
          "name": "initBaseURI",
          "type": "string"
        }
      ],
      "stateMutability": "nonpayable",
      "type": "constructor"
    },
    {
      "inputs": [],
      "name": "ApprovalCallerNotOwnerNorApproved",
      "type": "error"
    },
    {
      "inputs": [],
      "name": "ApprovalQueryForNonexistentToken",
      "type": "error"
    },
    {
      "inputs": [],
      "name": "ApprovalToCurrentOwner",
      "type": "error"
    },
    {
      "inputs": [],
      "name": "ApproveToCaller",
      "type": "error"
    },
    {
      "inputs": [],
      "name": "BalanceQueryForZeroAddress",
      "type": "error"
    },
    {
      "inputs": [],
      "name": "MintToZeroAddress",
      "type": "error"
    },
    {
      "inputs": [],
      "name": "MintZeroQuantity",
      "type": "error"
    },
    {
      "inputs": [],
      "name": "MintedQueryForZeroAddress",
      "type": "error"
    },
    {
      "inputs": [],
      "name": "OwnerQueryForNonexistentToken",
      "type": "error"
    },
    {
      "inputs": [],
      "name": "TransferCallerNotOwnerNorApproved",
      "type": "error"
    },
    {
      "inputs": [],
      "name": "TransferFromIncorrectOwner",
      "type": "error"
    },
    {
      "inputs": [],
      "name": "TransferToNonERC721ReceiverImplementer",
      "type": "error"
    },
    {
      "inputs": [],
      "name": "TransferToZeroAddress",
      "type": "error"
    },
    {
      "inputs": [],
      "name": "URIQueryForNonexistentToken",
      "type": "error"
    },
    {
      "anonymous": false,
      "inputs": [
        {
          "indexed": true,
          "internalType": "address",
          "name": "owner",
          "type": "address"
        },
        {
          "indexed": true,
          "internalType": "address",
          "name": "approved",
          "type": "address"
        },
        {
          "indexed": true,
          "internalType": "uint256",
          "name": "tokenId",
          "type": "uint256"
        }
      ],
      "name": "Approval",
      "type": "event"
    },
    {
      "anonymous": false,
      "inputs": [
        {
          "indexed": true,
          "internalType": "address",
          "name": "owner",
          "type": "address"
        },
        {
          "indexed": true,
          "internalType": "address",
          "name": "operator",
          "type": "address"
        },
        {
          "indexed": false,
          "internalType": "bool",
          "name": "approved",
          "type": "bool"
        }
      ],
      "name": "ApprovalForAll",
      "type": "event"
    },
    {
      "anonymous": false,
      "inputs": [
        {
          "indexed": false,
          "internalType": "string",
          "name": "newBaseURI",
          "type": "string"
        }
      ],
      "name": "BaseURIChanged",
      "type": "event"
    },
    {
      "anonymous": false,
      "inputs": [
        {
          "indexed": false,
          "internalType": "address",
          "name": "minter",
          "type": "address"
        },
        {
          "indexed": false,
          "internalType": "uint256",
          "name": "amount",
          "type": "uint256"
        }
      ],
      "name": "Minted",
      "type": "event"
    },
    {
      "anonymous": false,
      "inputs": [
        {
          "indexed": true,
          "internalType": "address",
          "name": "previousOwner",
          "type": "address"
        },
        {
          "indexed": true,
          "internalType": "address",
          "name": "newOwner",
          "type": "address"
        }
      ],
      "name": "OwnershipTransferred",
      "type": "event"
    },
    {
      "anonymous": false,
      "inputs": [
        {
          "indexed": false,
          "internalType": "enum LHHS.Status",
          "name": "status",
          "type": "uint8"
        }
      ],
      "name": "StatusChanged",
      "type": "event"
    },
    {
      "anonymous": false,
      "inputs": [
        {
          "indexed": true,
          "internalType": "address",
          "name": "from",
          "type": "address"
        },
        {
          "indexed": true,
          "internalType": "address",
          "name": "to",
          "type": "address"
        },
        {
          "indexed": true,
          "internalType": "uint256",
          "name": "tokenId",
          "type": "uint256"
        }
      ],
      "name": "Transfer",
      "type": "event"
    },
    {
      "inputs": [],
      "name": "MAX_MINT_PER_ADDR",
      "outputs": [
        {
          "internalType": "uint256",
          "name": "",
          "type": "uint256"
        }
      ],
      "stateMutability": "view",
      "type": "function"
    },
    {
      "inputs": [],
      "name": "MAX_SUPPLY",
      "outputs": [
        {
          "internalType": "uint256",
          "name": "",
          "type": "uint256"
        }
      ],
      "stateMutability": "view",
      "type": "function"
    },
    {
      "inputs": [],
      "name": "PRICE",
      "outputs": [
        {
          "internalType": "uint256",
          "name": "",
          "type": "uint256"
        }
      ],
      "stateMutability": "view",
      "type": "function"
    },
    {
      "inputs": [
        {
          "internalType": "address",
          "name": "to",
          "type": "address"
        },
        {
          "internalType": "uint256",
          "name": "tokenId",
          "type": "uint256"
        }
      ],
      "name": "approve",
      "outputs": [],
      "stateMutability": "nonpayable",
      "type": "function"
    },
    {
      "inputs": [
        {
          "internalType": "address",
          "name": "owner",
          "type": "address"
        }
      ],
      "name": "balanceOf",
      "outputs": [
        {
          "internalType": "uint256",
          "name": "",
          "type": "uint256"
        }
      ],
      "stateMutability": "view",
      "type": "function"
    },
    {
      "inputs": [],
      "name": "baseURI",
      "outputs": [
        {
          "internalType": "string",
          "name": "",
          "type": "string"
        }
      ],
      "stateMutability": "view",
      "type": "function"
    },
    {
      "inputs": [
        {
          "internalType": "uint256",
          "name": "tokenId",
          "type": "uint256"
        }
      ],
      "name": "getApproved",
      "outputs": [
        {
          "internalType": "address",
          "name": "",
          "type": "address"
        }
      ],
      "stateMutability": "view",
      "type": "function"
    },
    {
      "inputs": [
        {
          "internalType": "address",
          "name": "owner",
          "type": "address"
        },
        {
          "internalType": "address",
          "name": "operator",
          "type": "address"
        }
      ],
      "name": "isApprovedForAll",
      "outputs": [
        {
          "internalType": "bool",
          "name": "",
          "type": "bool"
        }
      ],
      "stateMutability": "view",
      "type": "function"
    },
    {
      "inputs": [
        {
          "internalType": "uint256",
          "name": "quantity",
          "type": "uint256"
        }
      ],
      "name": "mint",
      "outputs": [],
      "stateMutability": "payable",
      "type": "function"
    },
    {
      "inputs": [],
      "name": "name",
      "outputs": [
        {
          "internalType": "string",
          "name": "",
          "type": "string"
        }
      ],
      "stateMutability": "view",
      "type": "function"
    },
    {
      "inputs": [
        {
          "internalType": "address",
          "name": "owner",
          "type": "address"
        }
      ],
      "name": "numberMinted",
      "outputs": [
        {
          "internalType": "uint256",
          "name": "",
          "type": "uint256"
        }
      ],
      "stateMutability": "view",
      "type": "function"
    },
    {
      "inputs": [],
      "name": "owner",
      "outputs": [
        {
          "internalType": "address",
          "name": "",
          "type": "address"
        }
      ],
      "stateMutability": "view",
      "type": "function"
    },
    {
      "inputs": [
        {
          "internalType": "uint256",
          "name": "tokenId",
          "type": "uint256"
        }
      ],
      "name": "ownerOf",
      "outputs": [
        {
          "internalType": "address",
          "name": "",
          "type": "address"
        }
      ],
      "stateMutability": "view",
      "type": "function"
    },
    {
      "inputs": [],
      "name": "renounceOwnership",
      "outputs": [],
      "stateMutability": "nonpayable",
      "type": "function"
    },
    {
      "inputs": [
        {
          "internalType": "address",
          "name": "from",
          "type": "address"
        },
        {
          "internalType": "address",
          "name": "to",
          "type": "address"
        },
        {
          "internalType": "uint256",
          "name": "tokenId",
          "type": "uint256"
        }
      ],
      "name": "safeTransferFrom",
      "outputs": [],
      "stateMutability": "nonpayable",
      "type": "function"
    },
    {
      "inputs": [
        {
          "internalType": "address",
          "name": "from",
          "type": "address"
        },
        {
          "internalType": "address",
          "name": "to",
          "type": "address"
        },
        {
          "internalType": "uint256",
          "name": "tokenId",
          "type": "uint256"
        },
        {
          "internalType": "bytes",
          "name": "_data",
          "type": "bytes"
        }
      ],
      "name": "safeTransferFrom",
      "outputs": [],
      "stateMutability": "nonpayable",
      "type": "function"
    },
    {
      "inputs": [
        {
          "internalType": "address",
          "name": "operator",
          "type": "address"
        },
        {
          "internalType": "bool",
          "name": "approved",
          "type": "bool"
        }
      ],
      "name": "setApprovalForAll",
      "outputs": [],
      "stateMutability": "nonpayable",
      "type": "function"
    },
    {
      "inputs": [
        {
          "internalType": "string",
          "name": "newBaseURI",
          "type": "string"
        }
      ],
      "name": "setBaseURI",
      "outputs": [],
      "stateMutability": "nonpayable",
      "type": "function"
    },
    {
      "inputs": [
        {
          "internalType": "enum LHHS.Status",
          "name": "_status",
          "type": "uint8"
        }
      ],
      "name": "setStatus",
      "outputs": [],
      "stateMutability": "nonpayable",
      "type": "function"
    },
    {
      "inputs": [],
      "name": "status",
      "outputs": [
        {
          "internalType": "enum LHHS.Status",
          "name": "",
          "type": "uint8"
        }
      ],
      "stateMutability": "view",
      "type": "function"
    },
    {
      "inputs": [
        {
          "internalType": "bytes4",
          "name": "interfaceId",
          "type": "bytes4"
        }
      ],
      "name": "supportsInterface",
      "outputs": [
        {
          "internalType": "bool",
          "name": "",
          "type": "bool"
        }
      ],
      "stateMutability": "view",
      "type": "function"
    },
    {
      "inputs": [],
      "name": "symbol",
      "outputs": [
        {
          "internalType": "string",
          "name": "",
          "type": "string"
        }
      ],
      "stateMutability": "view",
      "type": "function"
    },
    {
      "inputs": [
        {
          "internalType": "uint256",
          "name": "tokenId",
          "type": "uint256"
        }
      ],
      "name": "tokenURI",
      "outputs": [
        {
          "internalType": "string",
          "name": "",
          "type": "string"
        }
      ],
      "stateMutability": "view",
      "type": "function"
    },
    {
      "inputs": [],
      "name": "totalSupply",
      "outputs": [
        {
          "internalType": "uint256",
          "name": "",
          "type": "uint256"
        }
      ],
      "stateMutability": "view",
      "type": "function"
    },
    {
      "inputs": [
        {
          "internalType": "address",
          "name": "from",
          "type": "address"
        },
        {
          "internalType": "address",
          "name": "to",
          "type": "address"
        },
        {
          "internalType": "uint256",
          "name": "tokenId",
          "type": "uint256"
        }
      ],
      "name": "transferFrom",
      "outputs": [],
      "stateMutability": "nonpayable",
      "type": "function"
    },
    {
      "inputs": [
        {
          "internalType": "address",
          "name": "newOwner",
          "type": "address"
        }
      ],
      "name": "transferOwnership",
      "outputs": [],
      "stateMutability": "nonpayable",
      "type": "function"
    },
    {
      "inputs": [
        {
          "internalType": "address payable",
          "name": "recipient",
          "type": "address"
        }
      ],
      "name": "withdraw",
      "outputs": [],
      "stateMutability": "nonpayable",
      "type": "function"
    }
  ],
  "bytecode": "0x60806040523480156200001157600080fd5b5060405162003e6738038062003e67833981810160405281019062000037919062000322565b6040518060400160405280600781526020017f4c4848534e4654000000000000000000000000000000000000000000000000008152506040518060400160405280600481526020017f4c484853000000000000000000000000000000000000000000000000000000008152508160029080519060200190620000bb92919062000200565b508060039080519060200190620000d492919062000200565b50620000e56200012d60201b60201c565b60008190555050506200010d620001016200013260201b60201c565b6200013a60201b60201c565b80600990805190602001906200012592919062000200565b5050620004d7565b600090565b600033905090565b6000600860009054906101000a900473ffffffffffffffffffffffffffffffffffffffff16905081600860006101000a81548173ffffffffffffffffffffffffffffffffffffffff021916908373ffffffffffffffffffffffffffffffffffffffff1602179055508173ffffffffffffffffffffffffffffffffffffffff168173ffffffffffffffffffffffffffffffffffffffff167f8be0079c531659141344cd1fd0a4f28419497f9722a3daafe3b4186f6b6457e060405160405180910390a35050565b8280546200020e90620003fc565b90600052602060002090601f0160209004810192826200023257600085556200027e565b82601f106200024d57805160ff19168380011785556200027e565b828001600101855582156200027e579182015b828111156200027d57825182559160200191906001019062000260565b5b5090506200028d919062000291565b5090565b5b80821115620002ac57600081600090555060010162000292565b5090565b6000620002c7620002c18462000390565b62000367565b905082815260208101848484011115620002e057600080fd5b620002ed848285620003c6565b509392505050565b600082601f8301126200030757600080fd5b815162000319848260208601620002b0565b91505092915050565b6000602082840312156200033557600080fd5b600082015167ffffffffffffffff8111156200035057600080fd5b6200035e84828501620002f5565b91505092915050565b60006200037362000386565b905062000381828262000432565b919050565b6000604051905090565b600067ffffffffffffffff821115620003ae57620003ad62000497565b5b620003b982620004c6565b9050602081019050919050565b60005b83811015620003e6578082015181840152602081019050620003c9565b83811115620003f6576000848401525b50505050565b600060028204905060018216806200041557607f821691505b602082108114156200042c576200042b62000468565b5b50919050565b6200043d82620004c6565b810181811067ffffffffffffffff821117156200045f576200045e62000497565b5b80604052505050565b7f4e487b7100000000000000000000000000000000000000000000000000000000600052602260045260246000fd5b7f4e487b7100000000000000000000000000000000000000000000000000000000600052604160045260246000fd5b6000601f19601f8301169050919050565b61398080620004e76000396000f3fe60806040526004361061019c5760003560e01c80636352211e116100ec578063a0712d681161008a578063c87b56dd11610064578063c87b56dd14610593578063dc33e681146105d0578063e985e9c51461060d578063f2fde38b1461064a5761019c565b8063a0712d6814610525578063a22cb46514610541578063b88d4fde1461056a5761019c565b8063715018a6116100c6578063715018a61461048d5780638d859f3e146104a45780638da5cb5b146104cf57806395d89b41146104fa5761019c565b80636352211e146103e85780636c0360eb1461042557806370a08231146104505761019c565b8063200d2ed21161015957806332cb6b0c1161013357806332cb6b0c1461034257806342842e0e1461036d57806351cff8d91461039657806355f804b3146103bf5761019c565b8063200d2ed2146102c557806323b872dd146102f05780632e49d78b146103195761019c565b806301ffc9a7146101a157806306fdde03146101de578063081812fc14610209578063095ea7b314610246578063161548621461026f57806318160ddd1461029a575b600080fd5b3480156101ad57600080fd5b506101c860048036038101906101c39190612d0d565b610673565b6040516101d59190613106565b60405180910390f35b3480156101ea57600080fd5b506101f3610755565b6040516102009190613160565b60405180910390f35b34801561021557600080fd5b50610230600480360381019061022b9190612dcd565b6107e7565b60405161023d9190613076565b60405180910390f35b34801561025257600080fd5b5061026d60048036038101906102689190612cd1565b610863565b005b34801561027b57600080fd5b5061028461096e565b6040516102919190613282565b60405180910390f35b3480156102a657600080fd5b506102af610973565b6040516102bc9190613282565b60405180910390f35b3480156102d157600080fd5b506102da61098a565b6040516102e79190613121565b60405180910390f35b3480156102fc57600080fd5b5061031760048036038101906103129190612bcb565b61099d565b005b34801561032557600080fd5b50610340600480360381019061033b9190612d5f565b6109ad565b005b34801561034e57600080fd5b50610357610ac2565b6040516103649190613282565b60405180910390f35b34801561037957600080fd5b50610394600480360381019061038f9190612bcb565b610ac8565b005b3480156103a257600080fd5b506103bd60048036038101906103b89190612b66565b610ae8565b005b3480156103cb57600080fd5b506103e660048036038101906103e19190612d88565b610c1a565b005b3480156103f457600080fd5b5061040f600480360381019061040a9190612dcd565b610ce5565b60405161041c9190613076565b60405180910390f35b34801561043157600080fd5b5061043a610cfb565b6040516104479190613160565b60405180910390f35b34801561045c57600080fd5b5061047760048036038101906104729190612b3d565b610d89565b6040516104849190613282565b60405180910390f35b34801561049957600080fd5b506104a2610e59565b005b3480156104b057600080fd5b506104b9610ee1565b6040516104c69190613282565b60405180910390f35b3480156104db57600080fd5b506104e4610eec565b6040516104f19190613076565b60405180910390f35b34801561050657600080fd5b5061050f610f16565b60405161051c9190613160565b60405180910390f35b61053f600480360381019061053a9190612dcd565b610fa8565b005b34801561054d57600080fd5b5061056860048036038101906105639190612c95565b6111e7565b005b34801561057657600080fd5b50610591600480360381019061058c9190612c1a565b61135f565b005b34801561059f57600080fd5b506105ba60048036038101906105b59190612dcd565b6113db565b6040516105c79190613160565b60405180910390f35b3480156105dc57600080fd5b506105f760048036038101906105f29190612b3d565b61147a565b6040516106049190613282565b60405180910390f35b34801561061957600080fd5b50610634600480360381019061062f9190612b8f565b61148c565b6040516106419190613106565b60405180910390f35b34801561065657600080fd5b50610671600480360381019061066c9190612b3d565b611520565b005b60007f80ac58cd000000000000000000000000000000000000000000000000000000007bffffffffffffffffffffffffffffffffffffffffffffffffffffffff1916827bffffffffffffffffffffffffffffffffffffffffffffffffffffffff1916148061073e57507f5b5e139f000000000000000000000000000000000000000000000000000000007bffffffffffffffffffffffffffffffffffffffffffffffffffffffff1916827bffffffffffffffffffffffffffffffffffffffffffffffffffffffff1916145b8061074e575061074d82611618565b5b9050919050565b60606002805461076490613543565b80601f016020809104026020016040519081016040528092919081815260200182805461079090613543565b80156107dd5780601f106107b2576101008083540402835291602001916107dd565b820191906000526020600020905b8154815290600101906020018083116107c057829003601f168201915b5050505050905090565b60006107f282611682565b610828576040517fcf4700e400000000000000000000000000000000000000000000000000000000815260040160405180910390fd5b6006600083815260200190815260200160002060009054906101000a900473ffffffffffffffffffffffffffffffffffffffff169050919050565b600061086e82610ce5565b90508073ffffffffffffffffffffffffffffffffffffffff168373ffffffffffffffffffffffffffffffffffffffff1614156108d6576040517f943f7b8c00000000000000000000000000000000000000000000000000000000815260040160405180910390fd5b8073ffffffffffffffffffffffffffffffffffffffff166108f56116d0565b73ffffffffffffffffffffffffffffffffffffffff16141580156109275750610925816109206116d0565b61148c565b155b1561095e576040517fcfb3b94200000000000000000000000000000000000000000000000000000000815260040160405180910390fd5b6109698383836116d8565b505050565b600281565b600061097d61178a565b6001546000540303905090565b600860149054906101000a900460ff1681565b6109a883838361178f565b505050565b6109b56116d0565b73ffffffffffffffffffffffffffffffffffffffff166109d3610eec565b73ffffffffffffffffffffffffffffffffffffffff1614610a29576040517f08c379a0000000000000000000000000000000000000000000000000000000008152600401610a20906131e2565b60405180910390fd5b80600860146101000a81548160ff02191690836002811115610a74577f4e487b7100000000000000000000000000000000000000000000000000000000600052602160045260246000fd5b02179055507fafa725e7f44cadb687a7043853fa1a7e7b8f0da74ce87ec546e9420f04da8c1e600860149054906101000a900460ff16604051610ab79190613121565b60405180910390a150565b611a0a81565b610ae38383836040518060200160405280600081525061135f565b505050565b610af06116d0565b73ffffffffffffffffffffffffffffffffffffffff16610b0e610eec565b73ffffffffffffffffffffffffffffffffffffffff1614610b64576040517f08c379a0000000000000000000000000000000000000000000000000000000008152600401610b5b906131e2565b60405180910390fd5b600047905060008273ffffffffffffffffffffffffffffffffffffffff1682604051610b8f90613061565b60006040518083038185875af1925050503d8060008114610bcc576040519150601f19603f3d011682016040523d82523d6000602084013e610bd1565b606091505b5050905080610c15576040517f08c379a0000000000000000000000000000000000000000000000000000000008152600401610c0c906131c2565b60405180910390fd5b505050565b610c226116d0565b73ffffffffffffffffffffffffffffffffffffffff16610c40610eec565b73ffffffffffffffffffffffffffffffffffffffff1614610c96576040517f08c379a0000000000000000000000000000000000000000000000000000000008152600401610c8d906131e2565b60405180910390fd5b818160099190610ca7929190612912565b507f5411e8ebf1636d9e83d5fc4900bf80cbac82e8790da2a4c94db4895e889eedf68282604051610cd992919061313c565b60405180910390a15050565b6000610cf082611c80565b600001519050919050565b60098054610d0890613543565b80601f0160208091040260200160405190810160405280929190818152602001828054610d3490613543565b8015610d815780601f10610d5657610100808354040283529160200191610d81565b820191906000526020600020905b815481529060010190602001808311610d6457829003601f168201915b505050505081565b60008073ffffffffffffffffffffffffffffffffffffffff168273ffffffffffffffffffffffffffffffffffffffff161415610df1576040517f8f4eb60400000000000000000000000000000000000000000000000000000000815260040160405180910390fd5b600560008373ffffffffffffffffffffffffffffffffffffffff1673ffffffffffffffffffffffffffffffffffffffff16815260200190815260200160002060000160009054906101000a900467ffffffffffffffff1667ffffffffffffffff169050919050565b610e616116d0565b73ffffffffffffffffffffffffffffffffffffffff16610e7f610eec565b73ffffffffffffffffffffffffffffffffffffffff1614610ed5576040517f08c379a0000000000000000000000000000000000000000000000000000000008152600401610ecc906131e2565b60405180910390fd5b610edf6000611f0f565b565b661772aa3f84800081565b6000600860009054906101000a900473ffffffffffffffffffffffffffffffffffffffff16905090565b606060038054610f2590613543565b80601f0160208091040260200160405190810160405280929190818152602001828054610f5190613543565b8015610f9e5780601f10610f7357610100808354040283529160200191610f9e565b820191906000526020600020905b815481529060010190602001808311610f8157829003601f168201915b5050505050905090565b60016002811115610fe2577f4e487b7100000000000000000000000000000000000000000000000000000000600052602160045260246000fd5b600860149054906101000a900460ff16600281111561102a577f4e487b7100000000000000000000000000000000000000000000000000000000600052602160045260246000fd5b1461106a576040517f08c379a000000000000000000000000000000000000000000000000000000000815260040161106190613262565b60405180910390fd5b3373ffffffffffffffffffffffffffffffffffffffff163273ffffffffffffffffffffffffffffffffffffffff16146110d8576040517f08c379a00000000000000000000000000000000000000000000000000000000081526004016110cf906131a2565b60405180910390fd5b6002816110e43361147a565b6110ee9190613341565b111561112f576040517f08c379a000000000000000000000000000000000000000000000000000000000815260040161112690613202565b60405180910390fd5b611a0a8161113b610973565b6111459190613341565b1115611186576040517f08c379a000000000000000000000000000000000000000000000000000000000815260040161117d90613222565b60405180910390fd5b6111903382611fd5565b6111ab81661772aa3f8480006111a691906133c8565b611ff3565b7f30385c845b448a36257a6a1716e6ad2e1bc2cbe333cde1e69fe849ad6511adfe33826040516111dc9291906130dd565b60405180910390a150565b6111ef6116d0565b73ffffffffffffffffffffffffffffffffffffffff168273ffffffffffffffffffffffffffffffffffffffff161415611254576040517fb06307db00000000000000000000000000000000000000000000000000000000815260040160405180910390fd5b80600760006112616116d0565b73ffffffffffffffffffffffffffffffffffffffff1673ffffffffffffffffffffffffffffffffffffffff16815260200190815260200160002060008473ffffffffffffffffffffffffffffffffffffffff1673ffffffffffffffffffffffffffffffffffffffff16815260200190815260200160002060006101000a81548160ff0219169083151502179055508173ffffffffffffffffffffffffffffffffffffffff1661130e6116d0565b73ffffffffffffffffffffffffffffffffffffffff167f17307eab39ab6107e8899845ad3d59bd9653f200f220920489ca2b5937696c31836040516113539190613106565b60405180910390a35050565b61136a84848461178f565b6113898373ffffffffffffffffffffffffffffffffffffffff16612094565b801561139e575061139c848484846120b7565b155b156113d5576040517fd1a57ed600000000000000000000000000000000000000000000000000000000815260040160405180910390fd5b50505050565b60606113e682611682565b61141c576040517fa14c4b5000000000000000000000000000000000000000000000000000000000815260040160405180910390fd5b6000611426612217565b90506000815114156114475760405180602001604052806000815250611472565b80611451846122a9565b60405160200161146292919061303d565b6040516020818303038152906040525b915050919050565b600061148582612456565b9050919050565b6000600760008473ffffffffffffffffffffffffffffffffffffffff1673ffffffffffffffffffffffffffffffffffffffff16815260200190815260200160002060008373ffffffffffffffffffffffffffffffffffffffff1673ffffffffffffffffffffffffffffffffffffffff16815260200190815260200160002060009054906101000a900460ff16905092915050565b6115286116d0565b73ffffffffffffffffffffffffffffffffffffffff16611546610eec565b73ffffffffffffffffffffffffffffffffffffffff161461159c576040517f08c379a0000000000000000000000000000000000000000000000000000000008152600401611593906131e2565b60405180910390fd5b600073ffffffffffffffffffffffffffffffffffffffff168173ffffffffffffffffffffffffffffffffffffffff16141561160c576040517f08c379a000000000000000000000000000000000000000000000000000000000815260040161160390613182565b60405180910390fd5b61161581611f0f565b50565b60007f01ffc9a7000000000000000000000000000000000000000000000000000000007bffffffffffffffffffffffffffffffffffffffffffffffffffffffff1916827bffffffffffffffffffffffffffffffffffffffffffffffffffffffff1916149050919050565b60008161168d61178a565b1115801561169c575060005482105b80156116c9575060046000838152602001908152602001600020600001601c9054906101000a900460ff16155b9050919050565b600033905090565b826006600084815260200190815260200160002060006101000a81548173ffffffffffffffffffffffffffffffffffffffff021916908373ffffffffffffffffffffffffffffffffffffffff160217905550818373ffffffffffffffffffffffffffffffffffffffff168273ffffffffffffffffffffffffffffffffffffffff167f8c5be1e5ebec7d5bd14f71427d1e84f3dd0314c0f7b2291e5b200ac8c7c3b92560405160405180910390a4505050565b600090565b600061179a82611c80565b90506000816000015173ffffffffffffffffffffffffffffffffffffffff166117c16116d0565b73ffffffffffffffffffffffffffffffffffffffff1614806117f457506117f382600001516117ee6116d0565b61148c565b5b8061183957506118026116d0565b73ffffffffffffffffffffffffffffffffffffffff16611821846107e7565b73ffffffffffffffffffffffffffffffffffffffff16145b905080611872576040517f59c896be00000000000000000000000000000000000000000000000000000000815260040160405180910390fd5b8473ffffffffffffffffffffffffffffffffffffffff16826000015173ffffffffffffffffffffffffffffffffffffffff16146118db576040517fa114810000000000000000000000000000000000000000000000000000000000815260040160405180910390fd5b600073ffffffffffffffffffffffffffffffffffffffff168473ffffffffffffffffffffffffffffffffffffffff161415611942576040517fea553b3400000000000000000000000000000000000000000000000000000000815260040160405180910390fd5b61194f8585856001612526565b61195f60008484600001516116d8565b6001600560008773ffffffffffffffffffffffffffffffffffffffff1673ffffffffffffffffffffffffffffffffffffffff16815260200190815260200160002060000160008282829054906101000a900467ffffffffffffffff160392506101000a81548167ffffffffffffffff021916908367ffffffffffffffff1602179055506001600560008673ffffffffffffffffffffffffffffffffffffffff1673ffffffffffffffffffffffffffffffffffffffff16815260200190815260200160002060000160008282829054906101000a900467ffffffffffffffff160192506101000a81548167ffffffffffffffff021916908367ffffffffffffffff160217905550836004600085815260200190815260200160002060000160006101000a81548173ffffffffffffffffffffffffffffffffffffffff021916908373ffffffffffffffffffffffffffffffffffffffff160217905550426004600085815260200190815260200160002060000160146101000a81548167ffffffffffffffff021916908367ffffffffffffffff1602179055506000600184019050600073ffffffffffffffffffffffffffffffffffffffff166004600083815260200190815260200160002060000160009054906101000a900473ffffffffffffffffffffffffffffffffffffffff1673ffffffffffffffffffffffffffffffffffffffff161415611c1057600054811015611c0f5782600001516004600083815260200190815260200160002060000160006101000a81548173ffffffffffffffffffffffffffffffffffffffff021916908373ffffffffffffffffffffffffffffffffffffffff16021790555082602001516004600083815260200190815260200160002060000160146101000a81548167ffffffffffffffff021916908367ffffffffffffffff1602179055505b5b50828473ffffffffffffffffffffffffffffffffffffffff168673ffffffffffffffffffffffffffffffffffffffff167fddf252ad1be2c89b69c2b068fc378daa952ba7f163c4a11628f55a4df523b3ef60405160405180910390a4611c79858585600161252c565b5050505050565b611c88612998565b600082905080611c9661178a565b11158015611ca5575060005481105b15611ed8576000600460008381526020019081526020016000206040518060600160405290816000820160009054906101000a900473ffffffffffffffffffffffffffffffffffffffff1673ffffffffffffffffffffffffffffffffffffffff1673ffffffffffffffffffffffffffffffffffffffff1681526020016000820160149054906101000a900467ffffffffffffffff1667ffffffffffffffff1667ffffffffffffffff16815260200160008201601c9054906101000a900460ff16151515158152505090508060400151611ed657600073ffffffffffffffffffffffffffffffffffffffff16816000015173ffffffffffffffffffffffffffffffffffffffff1614611dba578092505050611f0a565b5b600115611ed557818060019003925050600460008381526020019081526020016000206040518060600160405290816000820160009054906101000a900473ffffffffffffffffffffffffffffffffffffffff1673ffffffffffffffffffffffffffffffffffffffff1673ffffffffffffffffffffffffffffffffffffffff1681526020016000820160149054906101000a900467ffffffffffffffff1667ffffffffffffffff1667ffffffffffffffff16815260200160008201601c9054906101000a900460ff1615151515815250509050600073ffffffffffffffffffffffffffffffffffffffff16816000015173ffffffffffffffffffffffffffffffffffffffff1614611ed0578092505050611f0a565b611dbb565b5b505b6040517fdf2d9b4200000000000000000000000000000000000000000000000000000000815260040160405180910390fd5b919050565b6000600860009054906101000a900473ffffffffffffffffffffffffffffffffffffffff16905081600860006101000a81548173ffffffffffffffffffffffffffffffffffffffff021916908373ffffffffffffffffffffffffffffffffffffffff1602179055508173ffffffffffffffffffffffffffffffffffffffff168173ffffffffffffffffffffffffffffffffffffffff167f8be0079c531659141344cd1fd0a4f28419497f9722a3daafe3b4186f6b6457e060405160405180910390a35050565b611fef828260405180602001604052806000815250612532565b5050565b80341015612036576040517f08c379a000000000000000000000000000000000000000000000000000000000815260040161202d90613242565b60405180910390fd5b80341115612091573373ffffffffffffffffffffffffffffffffffffffff166108fc82346120649190613422565b9081150290604051600060405180830381858888f1935050505015801561208f573d6000803e3d6000fd5b505b50565b6000808273ffffffffffffffffffffffffffffffffffffffff163b119050919050565b60008373ffffffffffffffffffffffffffffffffffffffff1663150b7a026120dd6116d0565b8786866040518563ffffffff1660e01b81526004016120ff9493929190613091565b602060405180830381600087803b15801561211957600080fd5b505af192505050801561214a57506040513d601f19601f820116820180604052508101906121479190612d36565b60015b6121c4573d806000811461217a576040519150601f19603f3d011682016040523d82523d6000602084013e61217f565b606091505b506000815114156121bc576040517fd1a57ed600000000000000000000000000000000000000000000000000000000815260040160405180910390fd5b805181602001fd5b63150b7a0260e01b7bffffffffffffffffffffffffffffffffffffffffffffffffffffffff1916817bffffffffffffffffffffffffffffffffffffffffffffffffffffffff191614915050949350505050565b60606009805461222690613543565b80601f016020809104026020016040519081016040528092919081815260200182805461225290613543565b801561229f5780601f106122745761010080835404028352916020019161229f565b820191906000526020600020905b81548152906001019060200180831161228257829003601f168201915b5050505050905090565b606060008214156122f1576040518060400160405280600181526020017f30000000000000000000000000000000000000000000000000000000000000008152509050612451565b600082905060005b6000821461232357808061230c906135a6565b915050600a8261231c9190613397565b91506122f9565b60008167ffffffffffffffff811115612365577f4e487b7100000000000000000000000000000000000000000000000000000000600052604160045260246000fd5b6040519080825280601f01601f1916602001820160405280156123975781602001600182028036833780820191505090505b5090505b6000851461244a576001826123b09190613422565b9150600a856123bf91906135ef565b60306123cb9190613341565b60f81b818381518110612407577f4e487b7100000000000000000000000000000000000000000000000000000000600052603260045260246000fd5b60200101907effffffffffffffffffffffffffffffffffffffffffffffffffffffffffffff1916908160001a905350600a856124439190613397565b945061239b565b8093505050505b919050565b60008073ffffffffffffffffffffffffffffffffffffffff168273ffffffffffffffffffffffffffffffffffffffff1614156124be576040517f35ebb31900000000000000000000000000000000000000000000000000000000815260040160405180910390fd5b600560008373ffffffffffffffffffffffffffffffffffffffff1673ffffffffffffffffffffffffffffffffffffffff16815260200190815260200160002060000160089054906101000a900467ffffffffffffffff1667ffffffffffffffff169050919050565b50505050565b50505050565b61253f8383836001612544565b505050565b600080549050600073ffffffffffffffffffffffffffffffffffffffff168573ffffffffffffffffffffffffffffffffffffffff1614156125b1576040517f2e07630000000000000000000000000000000000000000000000000000000000815260040160405180910390fd5b60008414156125ec576040517fb562e8dd00000000000000000000000000000000000000000000000000000000815260040160405180910390fd5b6125f96000868387612526565b83600560008773ffffffffffffffffffffffffffffffffffffffff1673ffffffffffffffffffffffffffffffffffffffff16815260200190815260200160002060000160008282829054906101000a900467ffffffffffffffff160192506101000a81548167ffffffffffffffff021916908367ffffffffffffffff16021790555083600560008773ffffffffffffffffffffffffffffffffffffffff1673ffffffffffffffffffffffffffffffffffffffff16815260200190815260200160002060000160088282829054906101000a900467ffffffffffffffff160192506101000a81548167ffffffffffffffff021916908367ffffffffffffffff160217905550846004600083815260200190815260200160002060000160006101000a81548173ffffffffffffffffffffffffffffffffffffffff021916908373ffffffffffffffffffffffffffffffffffffffff160217905550426004600083815260200190815260200160002060000160146101000a81548167ffffffffffffffff021916908367ffffffffffffffff1602179055506000819050600085820190508380156127c357506127c28773ffffffffffffffffffffffffffffffffffffffff16612094565b5b15612889575b818773ffffffffffffffffffffffffffffffffffffffff16600073ffffffffffffffffffffffffffffffffffffffff167fddf252ad1be2c89b69c2b068fc378daa952ba7f163c4a11628f55a4df523b3ef60405160405180910390a461283860008884806001019550886120b7565b61286e576040517fd1a57ed600000000000000000000000000000000000000000000000000000000815260040160405180910390fd5b808214156127c957826000541461288457600080fd5b6128f5565b5b818060010192508773ffffffffffffffffffffffffffffffffffffffff16600073ffffffffffffffffffffffffffffffffffffffff167fddf252ad1be2c89b69c2b068fc378daa952ba7f163c4a11628f55a4df523b3ef60405160405180910390a48082141561288a575b81600081905550505061290b600086838761252c565b5050505050565b82805461291e90613543565b90600052602060002090601f0160209004810192826129405760008555612987565b82601f1061295957803560ff1916838001178555612987565b82800160010185558215612987579182015b8281111561298657823582559160200191906001019061296b565b5b50905061299491906129db565b5090565b6040518060600160405280600073ffffffffffffffffffffffffffffffffffffffff168152602001600067ffffffffffffffff1681526020016000151581525090565b5b808211156129f45760008160009055506001016129dc565b5090565b6000612a0b612a06846132c2565b61329d565b905082815260208101848484011115612a2357600080fd5b612a2e848285613501565b509392505050565b600081359050612a45816138c7565b92915050565b600081359050612a5a816138de565b92915050565b600081359050612a6f816138f5565b92915050565b600081359050612a848161390c565b92915050565b600081519050612a998161390c565b92915050565b600082601f830112612ab057600080fd5b8135612ac08482602086016129f8565b91505092915050565b600081359050612ad881613923565b92915050565b60008083601f840112612af057600080fd5b8235905067ffffffffffffffff811115612b0957600080fd5b602083019150836001820283011115612b2157600080fd5b9250929050565b600081359050612b3781613933565b92915050565b600060208284031215612b4f57600080fd5b6000612b5d84828501612a36565b91505092915050565b600060208284031215612b7857600080fd5b6000612b8684828501612a4b565b91505092915050565b60008060408385031215612ba257600080fd5b6000612bb085828601612a36565b9250506020612bc185828601612a36565b9150509250929050565b600080600060608486031215612be057600080fd5b6000612bee86828701612a36565b9350506020612bff86828701612a36565b9250506040612c1086828701612b28565b9150509250925092565b60008060008060808587031215612c3057600080fd5b6000612c3e87828801612a36565b9450506020612c4f87828801612a36565b9350506040612c6087828801612b28565b925050606085013567ffffffffffffffff811115612c7d57600080fd5b612c8987828801612a9f565b91505092959194509250565b60008060408385031215612ca857600080fd5b6000612cb685828601612a36565b9250506020612cc785828601612a60565b9150509250929050565b60008060408385031215612ce457600080fd5b6000612cf285828601612a36565b9250506020612d0385828601612b28565b9150509250929050565b600060208284031215612d1f57600080fd5b6000612d2d84828501612a75565b91505092915050565b600060208284031215612d4857600080fd5b6000612d5684828501612a8a565b91505092915050565b600060208284031215612d7157600080fd5b6000612d7f84828501612ac9565b91505092915050565b60008060208385031215612d9b57600080fd5b600083013567ffffffffffffffff811115612db557600080fd5b612dc185828601612ade565b92509250509250929050565b600060208284031215612ddf57600080fd5b6000612ded84828501612b28565b91505092915050565b612dff81613456565b82525050565b612e0e8161347a565b82525050565b6000612e1f826132f3565b612e298185613309565b9350612e39818560208601613510565b612e428161370b565b840191505092915050565b612e56816134ef565b82525050565b6000612e688385613325565b9350612e75838584613501565b612e7e8361370b565b840190509392505050565b6000612e94826132fe565b612e9e8185613325565b9350612eae818560208601613510565b612eb78161370b565b840191505092915050565b6000612ecd826132fe565b612ed78185613336565b9350612ee7818560208601613510565b80840191505092915050565b6000612f00602683613325565b9150612f0b8261371c565b604082019050919050565b6000612f23602183613325565b9150612f2e8261376b565b604082019050919050565b6000612f46601a83613325565b9150612f51826137ba565b602082019050919050565b6000612f69602083613325565b9150612f74826137e3565b602082019050919050565b6000612f8c601283613325565b9150612f978261380c565b602082019050919050565b6000612faf601883613325565b9150612fba82613835565b602082019050919050565b6000612fd260008361331a565b9150612fdd8261385e565b600082019050919050565b6000612ff5601683613325565b915061300082613861565b602082019050919050565b6000613018601683613325565b91506130238261388a565b602082019050919050565b613037816134e5565b82525050565b60006130498285612ec2565b91506130558284612ec2565b91508190509392505050565b600061306c82612fc5565b9150819050919050565b600060208201905061308b6000830184612df6565b92915050565b60006080820190506130a66000830187612df6565b6130b36020830186612df6565b6130c0604083018561302e565b81810360608301526130d28184612e14565b905095945050505050565b60006040820190506130f26000830185612df6565b6130ff602083018461302e565b9392505050565b600060208201905061311b6000830184612e05565b92915050565b60006020820190506131366000830184612e4d565b92915050565b60006020820190508181036000830152613157818486612e5c565b90509392505050565b6000602082019050818103600083015261317a8184612e89565b905092915050565b6000602082019050818103600083015261319b81612ef3565b9050919050565b600060208201905081810360008301526131bb81612f16565b9050919050565b600060208201905081810360008301526131db81612f39565b9050919050565b600060208201905081810360008301526131fb81612f5c565b9050919050565b6000602082019050818103600083015261321b81612f7f565b9050919050565b6000602082019050818103600083015261323b81612fa2565b9050919050565b6000602082019050818103600083015261325b81612fe8565b9050919050565b6000602082019050818103600083015261327b8161300b565b9050919050565b6000602082019050613297600083018461302e565b92915050565b60006132a76132b8565b90506132b38282613575565b919050565b6000604051905090565b600067ffffffffffffffff8211156132dd576132dc6136dc565b5b6132e68261370b565b9050602081019050919050565b600081519050919050565b600081519050919050565b600082825260208201905092915050565b600081905092915050565b600082825260208201905092915050565b600081905092915050565b600061334c826134e5565b9150613357836134e5565b9250827fffffffffffffffffffffffffffffffffffffffffffffffffffffffffffffffff0382111561338c5761338b613620565b5b828201905092915050565b60006133a2826134e5565b91506133ad836134e5565b9250826133bd576133bc61364f565b5b828204905092915050565b60006133d3826134e5565b91506133de836134e5565b9250817fffffffffffffffffffffffffffffffffffffffffffffffffffffffffffffffff048311821515161561341757613416613620565b5b828202905092915050565b600061342d826134e5565b9150613438836134e5565b92508282101561344b5761344a613620565b5b828203905092915050565b6000613461826134c5565b9050919050565b6000613473826134c5565b9050919050565b60008115159050919050565b60007fffffffff0000000000000000000000000000000000000000000000000000000082169050919050565b60008190506134c0826138b3565b919050565b600073ffffffffffffffffffffffffffffffffffffffff82169050919050565b6000819050919050565b60006134fa826134b2565b9050919050565b82818337600083830152505050565b60005b8381101561352e578082015181840152602081019050613513565b8381111561353d576000848401525b50505050565b6000600282049050600182168061355b57607f821691505b6020821081141561356f5761356e6136ad565b5b50919050565b61357e8261370b565b810181811067ffffffffffffffff8211171561359d5761359c6136dc565b5b80604052505050565b60006135b1826134e5565b91507fffffffffffffffffffffffffffffffffffffffffffffffffffffffffffffffff8214156135e4576135e3613620565b5b600182019050919050565b60006135fa826134e5565b9150613605836134e5565b9250826136155761361461364f565b5b828206905092915050565b7f4e487b7100000000000000000000000000000000000000000000000000000000600052601160045260246000fd5b7f4e487b7100000000000000000000000000000000000000000000000000000000600052601260045260246000fd5b7f4e487b7100000000000000000000000000000000000000000000000000000000600052602160045260246000fd5b7f4e487b7100000000000000000000000000000000000000000000000000000000600052602260045260246000fd5b7f4e487b7100000000000000000000000000000000000000000000000000000000600052604160045260246000fd5b6000601f19601f8301169050919050565b7f4f776e61626c653a206e6577206f776e657220697320746865207a65726f206160008201527f6464726573730000000000000000000000000000000000000000000000000000602082015250565b7f4c4848533a2042752079756e20787520686520797565206469616f20796f6e6760008201527f2e00000000000000000000000000000000000000000000000000000000000000602082015250565b7f4c4848533a2057616e206c652c207175616e2077616e206c652e000000000000600082015250565b7f4f776e61626c653a2063616c6c6572206973206e6f7420746865206f776e6572600082015250565b7f4c4848533a205a75692064756f206c69612e0000000000000000000000000000600082015250565b7f4c4848533a204d6569207a6865206d652064756f206c652e0000000000000000600082015250565b50565b7f4c4848533a204d65692064756f20676569204554482e00000000000000000000600082015250565b7f4c4848533a20486169206d6569206b6169207368692e00000000000000000000600082015250565b600381106138c4576138c361367e565b5b50565b6138d081613456565b81146138db57600080fd5b50565b6138e781613468565b81146138f257600080fd5b50565b6138fe8161347a565b811461390957600080fd5b50565b61391581613486565b811461392057600080fd5b50565b6003811061393057600080fd5b50565b61393c816134e5565b811461394757600080fd5b5056fea26469706673582212207e282aadb0a7907708585454a711cb2a11d0e995586edab9f5676377d93ea3ea64736f6c63430008040033",
  "linkReferences": {},
  "deployedLinkReferences": {}
}